:10764200B4AEBFDAC9E8D6C3CDEAB1CF0D0A005352
:1076520044BFA8B3F5CABCBBAFCDEAB1CF0D0A0097
:10766200CEC4BCFECFB5CDB3B3F5CABCBBAFB3C9B4
:10767200B9A60D0A00444252C9C8C7F8B5D8D6B750
:107682003A00D7DCB4E6B4A2C8DDC1BF284BD7D6D6
:10769200BDDA293A00C3BFC9C8C7F8D7D6BDDA28B0
:1076A200B8F6293A00464154C9C8C7F8CA3A00C3D5
:1076B200BFB4D8C9C8C7F828B8F6293A00B5DAD293
:1076C200BB464154C9C8C7F83A00B8F9C4BFC2BCE6
:1076D200BFAACABCC9C8C7F83A004653494E464F6A
:1076E200C9C8C7F8B5D8D6B73A00CFC2D2BBBFD542
:1076F200CFD0B4D83A00CAA3D3E0BFD5CFD0B4D844
:107702003A00CEC4BCFECFB5CDB3B3F5CABCBBAF55
:10771200CAA7B0DC202C20B4EDCEF3C2EB3A002F86
:10772200756E73656E642A2E747874003132333448
:10773200352E74787400D0DEB8C4B3C9B9A6A3A13B
:1077420000B4EDCEF3B4FAC2EBA3BA002F746573A2
:10775200740066696C65206E756D206973203A004D
:107762000A74696D6520697320000A2074696D6569
:027772007300A2
:108A8C004203AB0000550392000000000000000000
:108A9C00000000000000000000000000004403A7DC
:048AAC0000000000C6
:108B2C00E4F593F594F591F592F595F596F5B1F587
:108B3C00B2F5B3F5B4F5C9F5CAF5CBF5CCF5E1F55D
:028B4C00E22223
:108BC300538E7F5389F0758ACD758CF8C28DD28C04
:038BD300D2A92202
:106AC600E490020AF0A3F0A3F0A3F0A3F0A3F0A3CE
:106AD600F0A3F0128BC3128B2C128B837BFF7A767A
:106AE60079421288B5128B057BFF7A767951128826
:106AF600B57B007A007922E4FF128BD61257377ED7
:106B06000090020EEEF0A3EFF07BFF6003026BA88D
:106B16007A7679621288B57BFF7A7679777822124F
:106B26004CF9128B697BFF7A7679847826124CF9B8
:106B3600128B697BFF7A767997782A124CF9128B39
:106B4600697BFF7A7679A7782E124CF9128B697BCE
:106B5600FF7A7679B17832124CF9128B697BFF7A1B
:106B66007679BF7836124CF9128B697BFF7A767983
:106B7600CC783A124CF9128B697BFF7A7679DC78FD
:106B86003E124CF9128B697BFF7A7679EC784612C5
:106B96004CF9128B697BFF7A7679F87842124CF9B8
:106BA600800F7A77790490020EE0FEA3E0FFE4FC02
:106BB600FD128B6990021574FFF0A37477F0A3742D
:106BC60021F0A374FFF0A37477F0A3742EF0A31240
:106BD6004D710000000090021F7401F07B007A00E6
:106BE600794A1241157E0090020EEEF0A3EFF07B7B
:106BF600FF70097A7779381288B580127A777943E7
:106C060090020EE0FEA3E0FFE4FCFD128B69900308
:106C1600ABE0FFA3E090038ECFF0A3EFF090021558
:106C260074FFF0A37477F0A3744EF07B017A0379B6
:106C3600A7125A49128C2E7BFF7A7779549003A7B4
:106C4600E0FCA3E0FDA3E0FEA3E0FF128B697BFF5F
:106C56007A77796290038EE0FEA3E0FFC3900391FA
:106C6600E09FFF900390E09EFEE4FCFD128B697BA3
:106C7600FF7A77796C90020CE0FEA3E0FFEE339585
:086C8600E0FDFC128B6980FEA9
:03000B00028B4E17
:108B4E00C0E0C083C0829003ACE004F070069003D6
:0B8B5E00ABE004F0D082D083D0E03206
:0B8C0100EF1FAC0670011E4C70F62245
:1089C100000000004000000000954100000000018F
:1089D10048000001AA875000000200017700000052
:1089E10000016940000000016900000000017A00F7
:1089F100000000015800000000FF510000000001CC
:068A010049000000000125
:088AB0004104370041043600C7
:058C2900D2977F00223C
:107CE500900260E0FBA3E475F001124A2BA9F0FABB
:047CF500124913FF1E
:107CF9008F20A2079295C2963008077FD07E07127F
:107D09008C01D2963008077FD07E07128C01A2061B
:107D19009295C2963008077FD07E07128C01D296C1
:107D29003008077FD07E07128C01A2059295C29672
:107D39003008077FD07E07128C01D2963008077F62
:107D4900D07E07128C01A2049295C2963008077F53
:107D5900D07E07128C01D2963008077FD07E071299
:107D69008C01A2039295C2963008077FD07E071234
:107D79008C01D2963008077FD07E07128C01A202AF
:107D89009295C2963008077FD07E07128C01D29651
:107D99003008077FD07E07128C01A2019295C29606
:107DA9003008077FD07E07128C01D2963008077FF2
:107DB900D07E07128C01A2009295C2963008077FE7
:107DC900D07E07128C01D2963008077FD07E071229
:037DD9008C0122F8
:107BEC009002A6E0FBA3E475F001124A2BA9F0FA6F
:047BFC00EF12498CAF
:107C0000D297D2963008077FD07E07128C01C29699
:107C10003008077FD07E07128C01A2979207D29678
:107C20003008077FD07E07128C01C2963008077F8C
:107C3000D07E07128C01A2979206D2963008077F59
:107C4000D07E07128C01C2963008077FD07E0712C3
:107C50008C01A2979205D2963008077FD07E07123A
:107C60008C01C2963008077FD07E07128C01A29744
:107C70009204D2963008077FD07E07128C01C296FC
:107C80003008077FD07E07128C01A2979203D2960C
:107C90003008077FD07E07128C01C2963008077F1C
:107CA000D07E07128C01A2979202D2963008077FED
:107CB000D07E07128C01C2963008077FD07E071253
:107CC0008C01A2979201D2963008077FD07E0712CE
:107CD0008C01C2963008077FD07E07128C01A297D4
:057CE0009200AF20221C
:0682C3007B017A02793212
:0B82C9009002B1EBF0A3EAF0A3E9F093
:1082D400E4A3F0D2947FFF127CF9C294127C00BF15
:1082E400FFFA9002B1E0FBA3E0FAA3E0F9127CF5F7
:1082F4009002B1E0FBA3E0FAA3E0F9900001124977
:108304002CFF127CF99002B1E0FBA3E0FAA3E0F9A0
:1083140090000212492CFF127CF99002B1E0FBA3F9
:10832400E0FAA3E0F990000312492CFF127CF990C3
:1083340002B1E0FBA3E0FAA3E0F990000412492C97
:10834400FF127CF99002B1E0FBA3E0FAA3E0F990FC
:10835400000512492CFF127CF99002B1E0FBA3E066
:10836400FAA3E0F9124913B41C03127C00127C0036
:108374009002B4E004F0EFB4FF06E0C3946440ED6F
:0183840022D6
:1066AF00E4900213F0A3F0A3F078167C027D017B37
:1066BF00FF7A8979C1FE7F041248ED781A7C027D3A
:1066CF00017BFF7A8979C57E007F061248ED78201D
:1066DF007C027D017BFF7A8979CB7E007F06124891
:1066EF00ED78267C027D017BFF7A8979D17E007F50
:1066FF00061248ED782C7C027D017BFF7A8979D7D1
:10670F007E007F061248ED78327C027D017BFF7A96
:10671F008979DD7E007F061248ED78387C027D0195
:10672F007BFF7A8979E37E007F061248ED783E7C05
:10673F00027D017BFF7A8979E97E007F061248EDA1
:10674F0078447C027D017BFF7A8979EF7E007F069A
:10675F001248ED128C29D208D294E4900215F07FE2
:10676F00FF127CF9900215E004F0E0C3940F40EFA4
:10677F00E4900213F07B017A02791A1282C9900217
:10678F0014EFF0900213E004F0E0B464037F0222F0
:10679F00900214E0B401DE7B017A0279261282C9DD
:1067AF00EF6401600302685E127C00900216EFF046
:1067BF00127C00900217EFF0127C00900218EFF09D
:1067CF00127C00900219EFF0900218E06401600350
:1067DF000268D5A3E064AA60030268D5900213F0A3
:1067EF001282C37B017A0279381282C9900214EFA8
:1067FF00F0900213E004F0E0C3946440037F04229E
:10680F00900214E070DA7B017A0279441282C9EFA8
:10681F0060030268D5127C00900216EFF0127C0024
:10682F00900217EFF0127C00900218EFF0127C002C
:10683F00900219EFF0900216E090043630E60A74D9
:10684F0004F0A37401F00268D57403F00268D51246
:10685F0082C37B017A02793E1282C9900214EFF053
:10686F00D3940150339004367402F0E4900213F085
:10687F001282C37B017A02793E1282C9900214EF11
:10688F00F0900213E004F0E0C3946440037F05220C
:10689F00900214E070DA802E9004367401F0E490C8
:1068AF000213F07B017A0279201282C9900214EF51
:1068BF00F0900213E004F0E0C3946440037F0322DE
:1068CF00900214E070DD7B017A02792C1282C9EFFD
:1068DF006008E4900436F07F0122D2947FFF127C8F
:0568EF00F9C2087F0062
:0168F4002281
:105CF20090025C124D65900260EBF0A3EAF0A3E91A
:015D0200F0B0
:105D0300E4900265F078667C027D017BFF7A8979F5
:105D1300F5FE7F061248ED900437E0701990025C9F
:105D2300E0FCA3E0FDA3E0FEA3E0FF7809124C58DA
:105D330090025C124D6590025CE0FCA3E0FDA3E0E1
:105D4300FEA3E0FF7818124C45900267EFF0900233
:105D53005CE0FCA3E0FDA3E0FEA3E0FF7810124C9F
:105D630045900268EFF090025CE0FCA3E0FDA3E045
:105D7300FEA3E0FF7808124C45900269EFF0900211
:105D83005CA3A3A3E090026AF0E4900264F07B01B9
:105D93007A0279661282C9900263EFF0A3E004F0FD
:105DA300E0B46406900263E0FF22900263E070DED9
:105DB300127C00BFFFFA7FFE127CF9E4900265F0CB
:105DC300127CE5127CE5127CE5127CE5127CE5127F
:105DD3007CE5127CE5127CE5127CE5127CE5127C05
:105DE300E5127CE5127CE5127CE5127CE5127CE58C
:105DF300127CE5127CE5127CE5127CE5127CE5124F
:105E03007CE5127CE5127CE5127CE5127CE5127CD4
:105E1300E5127CE5127CE5127CE5127CE5127CE55B
:105E2300127CE5127CE5127CE5127CE5127CE5121E
:105E33007CE5127CE5127CE5127CE5127CE5127CA4
:105E4300E5127CE5127CE5127CE5127CE5127CE52B
:105E5300127CE5127CE5127CE5127CE5127CE512EE
:105E63007CE5127CE5127CE5127CE5127CE5127C74
:105E7300E5127CE5127CE5127CE5127CE5127CE5FB
:105E8300127CE5127CE5127CE5127CE5127CE512BE
:105E93007CE5127CE5127CE5127CE5127CE5127C44
:105EA300E5127CE5127CE5127CE5127CE5127CE5CB
:105EB300127CE5127CE5127CE5127CE5127CE5128E
:105EC3007CE5127CE5127CE5127CE5127CE5127C14
:105ED300E5127CE5127CE5127CE5127CE5127CE59B
:105EE300127CE5127CE5127CE5127CE5127CE5125E
:105EF3007CE5127CE5127CE5127CE5127CE5127CE4
:105F0300E5127CE5127CE5127CE5127CE5127CE56A
:105F1300127CE5127CE5127CE5127CE5127CE5122D
:105F23007CE5127CE5127CE5127CE5127CE5127CB3
:105F3300E5127CE5127CE5127CE5127CE5127CE53A
:105F4300900265E004F0E0C394045003025DC37F54
:105F5300FF127CF97FFF127CF9127C00900263EF41
:105F6300F0541F640560037F0722127C00BFFFFA11
:095F7300D2947FFF127CF97F003B
:015F7C002202
:1061F3009002A2124D659002A6EBF0A3EAF0A3E988
:01620300F0AA
:1062040078AB7C027D017BFF7A8979FB7E007F0677
:106214001248ED900437E070199002A2E0FCA3E06C
:10622400FDA3E0FEA3E0FF7809124C589002A212ED
:106234004D659002A2E0FCA3E0FDA3E0FEA3E0FF15
:106244007818124C459002ACEFF09002A2E0FCA347
:10625400E0FDA3E0FEA3E0FF7810124C459002ADF0
:10626400EFF09002A2E0FCA3E0FDA3E0FEA3E0FFB8
:106274007808124C459002AEEFF09002A2A3A3A3BB
:10628400E09002AFF0E49002AAF07B017A0279ABCD
:106294001282C99002AAE004F0E0B464037F0822E9
:1062A400EF70E7127C00BFFEFAE49002A9F0127CC2
:1062B40000127BEC127BEC127BEC127BEC127BEC7D
:1062C400127BEC127BEC127BEC127BEC127BEC125B
:1062D4007BEC127BEC127BEC127BEC127BEC127BE2
:1062E400EC127BEC127BEC127BEC127BEC127BEC61
:1062F400127BEC127BEC127BEC127BEC127BEC122B
:106304007BEC127BEC127BEC127BEC127BEC127BB1
:10631400EC127BEC127BEC127BEC127BEC127BEC30
:10632400127BEC127BEC127BEC127BEC127BEC12FA
:106334007BEC127BEC127BEC127BEC127BEC127B81
:10634400EC127BEC127BEC127BEC127BEC127BEC00
:10635400127BEC127BEC127BEC127BEC127BEC12CA
:106364007BEC127BEC127BEC127BEC127BEC127B51
:10637400EC127BEC127BEC127BEC127BEC127BECD0
:10638400127BEC127BEC127BEC127BEC127BEC129A
:106394007BEC127BEC127BEC127BEC127BEC127B21
:1063A400EC127BEC127BEC127BEC127BEC127BECA0
:1063B400127BEC127BEC127BEC127BEC127BEC126A
:1063C4007BEC127BEC127BEC127BEC127BEC127BF1
:1063D400EC127BEC127BEC127BEC127BEC127BEC70
:1063E400127BEC127BEC127BEC127BEC127BEC123A
:1063F4007BEC127BEC127BEC127BEC127BEC127BC1
:10640400EC127BEC127BEC127BEC127BEC127BEC3F
:10641400127BEC127BEC127BEC127BEC127BEC1209
:106424007BEC127BEC127BEC127BEC127BEC90028B
:10643400A6E0FBA3E475F001124A2BA9F0FAEF12CF
:10644400498C9002A9E004F0E0C394045003026272
:10645400B2127C00127C00D2947FFF127CF97F0080
:016464002215
:107AE40078C47C037D017BFF7A8A79017E007F065E
:107AF4001248ED7B017A0379C41282C9EF6007E46E
:107B04007F0CFEFDFC22127C00BFFEFAE49003C150
:107B1400F0127C009003C1E024ADF582E43403F557
:107B240083EFF09003C1E004F0E0C3941040E2124C
:107B34007C00127C00D2947FFF127CF99003ADE0AC
:107B440054C0FFBF40229003B5E0FEA3E07C0024B4
:107B540000FFEC3ECF2401CF3400FE9003C2F0A31B
:107B6400EFF0E4FD780A80689003B7E05480C41312
:107B740013135401FF9003B2E0540F2FFF9003B688
:107B8400E0540325E02F2402FB9003B4E075F004D5
:107B9400A4FFA3E0C4131354037C002FFDEC35F0C1
:107BA400FC9003B3E054037F0025E025E0FEEF2DB5
:107BB400FFEC3ECF2401CF34009003C2F0A3EFF0DA
:107BC4009003C2E0FEA3E0FFE4FCFDEB24F7F9F828
:107BD400124C589003BD124D659003BDE0FCA3E028
:077BE400FDA3E0FEA3E0FF9A
:017BEB002277
:1079D200900221124D65900225EBF0A3EAF0A3E993
:0179E200F0B4
:1079E300E4A3F0A3F0900221E0FCA3E0FDA3E0FEFA
:1079F300A3E0FFEC33502B900221A3A3A3E0124C8E
:107A030010900221124D65900225E0FBA3E475F06E
:107A130001124A2BA9F0FA742D12498C900229E025
:107A230004F0E47B0AFAF9F8900221E0FCA3E0FDFC
:107A3300A3E0FEA3E0FF128A07EB2430FF900228A5
:107A4300E0FE04F0EEFD3395E0FC742A2DF582741C
:107A5300023CF583EFF0900221E0FCA3E0FDA3E0FC
:107A6300FEA3E0FFE47B0AFAF9F8128A07900221E9
:107A7300124D65E4FFFEFDFC900221E0F8A3E0F95E
:107A8300A3E0FAA3E0FBD3124C1E5096900228E029
:107A9300FFA3E02FF0900228E0FF14F0D3EF6480FF
:107AA30094804028E0FF3395E0FE742A2FF582741A
:107AB300023EF583E0FF900225E0FBA3E475F001AD
:107AC300124A2BA9F0FAEF12498C80C9900225E0E3
:107AD300FBA3E0FAA3E0F9E412498C900229E0FF4A
:017AE3002280
:108B8300438920758DFA758BFAD28EE4F58E75982C
:068B930050D2ACD2AF226B
:0C8BE900C2AC8F993099FDC299D2AC2229
:0A8C17007F0D128BE97F0A028BE942
:0B88B500900221EBF0A3EAF0A3E9F031
:1088C000128BAEEF24FFFFEE34FF900224F0A3EFF3
:1088D000F0E4FDFCD3900225E09D900224E09C4052
:1088E0001D900221E0FBA3E0FAA3E0F98D828C83C6
:1088F00012492CFF128BE90DBD00010C80D69002AD
:1089000021E0FBA3E0FAA3E0F98D828C8312492CCD
:0C891000FEB40A03028C17AF06128BE9BC
:01891C002238
:108B99007B017A0279161279D27B017A027916124F
:058BA90088B5028C17E5
:108B6900900212124D651288B5900212E0FCA3E042
:0A8B7900FDA3E0FEA3E0FF028B99CC
:108B0500E4FF900212F0900432F090042E124D71A1
:108B1500000000001266AFEF6007900212E044010A
:068B2500F0900212E0FFD7
:018B2B002227
:1080730090029B124D6590029FEBF0A3EAF0A3E9F7
:10808300F0900000E0FBA3E0FAA3E0F9C003C00214
:10809300C00190029FE0FBA3E0FAA3E0F9D082D0F5
:1080A30083D0E06B7008E965827003EA65837060D2
:1080B300900003E0FF900432E0B5073890029BE0A4
:1080C300FCA3E0FDA3E0FEA3E0FF90042EE0F8A3F1
:1080D300E0F9A3E0FAA3E0FBC3124C347016FFFEF1
:1080E300FDFC90042EE0F8A3A3A3E0C3124C34607C
:1080F300037F0022900003E0900432F090029BE0A3
:10810300FCA3E0FDA3E0FEA3E0FF90042E124D6567
:10811300900003E0701D90029BE0FCA3E0FDA3E050
:10812300FEA3E0FFA3E0FBA3E0FAA3E0F91261F3EF
:06813300EF70E37F002263
:10874F00900255124D65900259EBF0A3EAF0A3E9A0
:10875F00F0900000E0FBA3E0FAA3E0F9C003C00231
:10876F00C001900259E0FBA3E0FAA3E0F9D082D058
:10877F0083D0E06B7008E965827003EA6583701C33
:10878F00900003E0900432F0900255E0FCA3E0FD6E
:10879F00A3E0FEA3E0FF90042E124D65900003E0CE
:1087AF00701D900255E0FCA3E0FDA3E0FEA3E0FFE7
:1087BF00A3E0FBA3E0FAA3E0F9125CF2EF70E37F12
:0287CF00002286
:068139009003CA124D651F
:10813F009003D5124D7100000000E4FFFEFDFC908E
:10814F0003CAE0F8A3E0F9A3E0FAA3E0FBC3124CE3
:10815F00347002FF22900003E060030281FB900362
:10816F00D5124D71000000009003CAE0FCA3E0FDA2
:10817F00A3E0FEA3E0FF9003D5E0F8A3E0F9A3E0AE
:10818F00FAA3E0FBC3124C3450629003D5E0FCA37A
:10819F00E0FDA3E0FEA3E0FF9003CEE0F8A3E0F93B
:1081AF00A3E0FAA3E02FFFEA3EFEE93DFDE83CFC29
:1081BF00A3E0FBA3E0FAA3E0F91261F3EF70CB9019
:1081CF0003D3740275F000124A159003D5E0FCA397
:1081DF00E0FDA3E0FEA3E02401FFE43EFEE43DFD4D
:0E81EF00E43CFC9003D5124D650281777F00C1
:0181FD00225F
:0681FE009003D9124D654B
:108204009003E4124D7100000000E4FFFEFDFC90B9
:1082140003D9E0F8A3E0F9A3E0FAA3E0FBC3124C0E
:10822400347002FF22900003E060030282C09003D6
:10823400E4124D71000000009003D9E0FCA3E0FDBE
:10824400A3E0FEA3E0FF9003E4E0F8A3E0F9A3E0D9
:10825400FAA3E0FBC3124C3450629003E4E0FCA3A5
:10826400E0FDA3E0FEA3E0FF9003DDE0F8A3E0F966
:10827400A3E0FAA3E02FFFEA3EFEE93DFDE83CFC63
:10828400A3E0FBA3E0FAA3E0F9125CF2EF70CB9059
:1082940003E2740275F000124A159003E4E0FCA3B3
:1082A400E0FDA3E0FEA3E02401FFE43EFEE43DFD87
:0E82B400E43CFC9003E4124D6502823C7F0026
:0182C2002299
:0673BC00900403124D6570
:1073C20090040B124D710000000090040B124D71DD
:1073D20000000000E4FF7E02FDFC90040BE0F8A335
:1073E200E0F9A3E0FAA3E0FBC3124C34503E900450
:1073F2000BA3A3E0FEA3E0FF900000E0FBA3E0FAF2
:10740200A3E0F98F828E83E412499E90040BE0FC84
:10741200A3E0FDA3E0FEA3E02401FFE43EFEE43D81
:10742200FDE43CFC90040B124D6580A8900003E043
:1074320060030274BB90040B124D710000000090B7
:107442000403E0FCA3E0FDA3E0FEA3E0FF90040B35
:10745200E0F8A3E0F9A3E0FAA3E0FBC3124C345036
:107462005890040BE0FCA3E0FDA3E0FEA3E0FF9034
:107472000407E0F8A3E0F9A3E0FAA3E02FFFEA3E55
:10748200FEE93DFDE83CFC900000E0FBA3E0FAA32E
:10749200E0F9125CF2EF70C990040BE0FCA3E0FD8E
:1074A200A3E0FEA3E02401FFE43EFEE43DFDE43C54
:1074B200FC90040B124D658086900003E09004322C
:1074C200F0900403E0FCA3E0FDA3E0FEA3E0FFA331
:1074D200E0F8A3E0F9A3E0FAA3E02FFFEA3EFEE919
:1074E2003DFDE83CFCEF24FFFFEE34FFFEED34FFF0
:0D74F200FDEC34FFFC90042E124D657F0070
:0174FF00226A
:0B8C0C005252614172724161EB5890BE
:108AB80043000001000741000300430004000000D8
:0F86370090040FEBF0A3EAF0A3E9F0A3124D6556
:10864600900417124D7100000000900417124D712E
:1086560000000000900412E0FCA3E0FDA3E0FEA3EE
:10866600E0FF900417E0F8A3E0F9A3E0FAA3E0FB2B
:10867600C3124C345044900416E0FFC007A3A3A3D2
:10868600E0FEA3E0FF90040FE0FBA3E0FAA3E0F90D
:108696008F828E83D0E012499E900417E0FCA3E0FF
:1086A600FDA3E0FEA3E02401FFE43EFEE43DFDE47D
:0C86B6003CFC900417124D65809A7F0078
:0186C2002295
:0B859F0090022AEBF0A3EAF0A3E9F041
:1085AA00900234124D7100000000900234124D7195
:1085BA0000000000900230E0FCA3E0FDA3E0FEA36F
:1085CA00E0FFA3E0F8A3E0F9A3E0FAA3E0FBC312FB
:1085DA004C345056900234A3A3E0FEA3E0FF90026D
:1085EA002DE0FBA3E0FAA3E0F98F828E8312492CD7
:1085FA00FD90022AE0FBA3E0FAA3E0F98F828E83C2
:10860A0012492C6D60037F0022900234E0FCA3E043
:10861A00FDA3E0FEA3E02401FFE43EFEE43DFDE409
:0C862A003CFC900234124D65808A7F01F8
:018636002221
:10838500E0FCA3E0FDA3E0FEA3E0FF9003EE124DA9
:0C83950065900306E0FBA3E0FAA3E0F90A
:0B83A1009003E8EBF0A3EAF0A3E9F082
:1083AC009003F2124D71000000009003F2124D7117
:1083BC00000000009003EEE0FCA3E0FDA3E0FEA3B0
:1083CC00E0FFA3E0F8A3E0F9A3E0FAA3E0FBC312FB
:1083DC004C3450549003F2A3A3E0FEA3E0FF9003AF
:1083EC00EBE0FBA3E0FAA3E0F98F828E8312492C19
:1083FC00FDC0059003E8E0FBA3E0FAA3E0F98F824F
:10840C008E83D0E012499E9003F2E0FCA3E0FDA322
:10841C00E0FEA3E02401FFE43EFEE43DFDE43CFC71
:10842C009003F2124D65808C9003E8E0FBA3E0FA18
:03843C00A3E0F9C1
:01843F00221A
:0B897200900422EBF0A3EAF0A3E9F070
:10897D00E4FF900425E0FBA3E0FAA3E0F98F8275F4
:10898D00830012492CFE6017900422E0FBA3E0FA4D
:10899D00A3E0F98F82758300EE12499E0F80D3906C
:1089AD000422E0FBA3E0FAA3E0F98F82758300E4D3
:0389BD0012499EBE
:0189C0002294
:0B891D00900255E0FBA3E0FAA3E0F994
:108928009002BD124D71000000009002BDA3A3E0AB
:10893800FEA3E0F5828E8312492C601F9002BDE0F1
:10894800FCA3E0FDA3A3E02401FFE43EFEE43DFD1B
:10895800E43CFC9002BD124D6580CF9002BDE0FC66
:09896800A3E0FDA3E0FEA3E0FF83
:0189710022E3
:0B88450090041BEBF0A3EAF0A3E9F0A5
:10885000A3124D7100000000E47F02FEFDFC9004B5
:108860001EE0F8A3E0F9A3E0FAA3E0FB124AF390BC
:10887000041BE0FBA3E0FAA3E0F98F828E83124A87
:108880004145F0602190041EE0FCA3E0FDA3E0FE62
:10889000A3E02401FFE43EFEE43DFDE43CFC900443
:1088A0001E124D6580B290041EE0FCA3E0FDA3E023
:0488B000FEA3E0FF44
:0188B40022A1
:080003008F828E83E493FF223B
:0C8BF5008F828E83E493FE740193FF22B4
:088C21008F828E83124D0522A3
:1084F4009003F6EBF0A3EAF0A3E9F0A3ECF0A3ED0C
:01850400F086
:108505009003FF124D71000000009003FF124D71A2
:10851500000000009003FBE0FCA3E0FDA3E0FEA348
:10852500E0FFA3E0F8A3E0F9A3E0FAA3E0FBC312A0
:108535004C34505A9003FFA3A3E0FEA3E0FF900341
:10854500FAE02FFF9003F9E03EFE120003C007900A
:1085550003FFA3A3E0FEA3E0FF9003F6E0FBA3E087
:10856500FAA3E0F98F828E83D0E012499E9003FF33
:10857500E0FCA3E0FDA3E0FEA3E02401FFE43EFE52
:10858500E43DFDE43CFC9003FF124D6580869003BD
:09859500F6E0FBA3E0FAA3E0F913
:01859E0022BA
:108BD600900207EBF0A3EAF0A3E9F0900003EFF0B0
:038BE6007F0022EB
:0F6E3800E0FBA3E0FAA3E0240EF9E43AFA7D02AE
:0F6E470090029BEBF0A3EAF0A3E9F0A3EDF0FBC0
:106E5600A3124D7100000000EBC39401403890026C
:106E66009FE0F8A3E0F9A3E0FAA3E0FBC001C002AB
:106E7600C00390029BE0FBA3E0FAA3E0F9124913DA
:106E8600FFD003D002D001EB4FFFEAFEE9FDE8FC9C
:106E960090029F124D6590029EE0C394024049A362
:106EA600E0F8A3E0F9A3E0FAA3E0FBC000C001C04C
:106EB60002C00390029BE0FBA3E0FAA3E0F9900076
:106EC6000112492CFFE4FCFDFE7808124C58D00351
:106ED600D002D001D000EB4FFFEA4EFEE94DFDE8AF
:106EE6004CFC90029F124D6590029EE0C3940340B5
:106EF60049A3E0F8A3E0F9A3E0FAA3E0FBC000C0D1
:106F060001C002C00390029BE0FBA3E0FAA3E0F9F4
:106F160090000212492CFFE4FCFDFE7810124C583A
:106F2600D003D002D001D000EB4FFFEA4EFEE94D70
:106F3600FDE84CFC90029F124D6590029EE0C394C2
:106F4600044049A3E0F8A3E0F9A3E0FAA3E0FBC0FC
:106F560000C001C002C00390029BE0FBA3E0FAA3BD
:106F6600E0F990000312492CFFE4FCFDFE781812AC
:106F76004C58D003D002D001D000EB4FFFEA4EFEB2
:106F8600E94DFDE84CFC90029F124D6590029FE092
:0A6F9600FCA3E0FDA3E0FEA3E0FF72
:016FA00022CE
:0B750000900218EBF0A3EAF0A3E9F002
:10750B00A3124D710000000078227C027D017BFFED
:10751B007A8C790C7E007F041248ED78267C027DF4
:10752B00017BFF7A8C79107E007F041248ED90026C
:10753B0007E0FBA3E0FAA3E0F9124C6BEF02762A0B
:10754B00900207E0FBA3E0FAA3E0F9900014124CC1
:10755B008B90021BE0F8A3E0F9A3E0FAA3E0FBC3D6
:10756B00124C34400302763F90021BE0FCA3E0FD7B
:10757B00A3E0FEA3E0FF900000E0FBA3E0FAA3E092
:10758B00F9128073900000E0FBA3E0FAA3E0F990FE
:10759B00021FEBF0A3EAF0A3E9F0C003C002C001A5
:1075AB0090022D7401F0A37402F0A37422F0A312C5
:1075BB004D7100000004D001D002D00312859FEF63
:1075CB00605090021FE0FBA3E0FAA3E024E4F9EA89
:1075DB003401FAC00390022D7401F0A37402F0A3DE
:1075EB007426F0A3124D7100000004D00312859F86
:1075FB00EF601F90021BE0FCA3E0FDA3E0FEA3E005
:10760B00FF900218E0FBA3E0FAA3E0F9124CBB7F5A
:10761B00002290021BE0FCA3E0FDA3E0FEA3E0240C
:10762B0001FFE43EFEE43DFDE43CFC90021B124DE9
:06763B006502754B7F01A2
:017641002226
:0B710900900218EBF0A3EAF0A3E9F0FD
:10711400A3124D7100000000E490021FF090021BC6
:10712400124D7100000000900207E0FBA3E0FAA3F7
:10713400E0F990000C124C8B90021BE0F8A3E0F9EC
:10714400A3E0FAA3E0FBC3124C3440030272639041
:107154000207E0FBA3E0FAA3E0F9900014124C8BC1
:1071640090021BE0F8A3E0F9A3E0FAA3E02FFFEA02
:107174003EFEE93DFDE83CFC900000E0FBA3E0FAA4
:10718400A3E0F9128073900000E0F9A3E0FAA3E011
:10719400900220C9F0A3EAF0A3E9F0E490021FF002
:1071A40090021FE0FFC394804003027241A3E0FBFE
:1071B400A3E0FAA3E0F975F004EFA4F58285F08367
:1071C40012492C706F90021FE075F004A4FFA3A372
:1071D400A3E02FF9EA35F0FA90000112492C70541B
:1071E40090000212492C704C90000312492C7044F8
:1071F4007F80FEFDFC90021BE0F8A3E0F9A3E0FA17
:10720400A3E0FB124AF3A804A905AA06AB0790025F
:107214001FE0FFE4FCFDFEEB2FFFEE3AFEED39FD2F
:10722400EC38FC900218E0FBA3E0FAA3E0F9124C5E
:10723400BB7F002290021FE004F00271A490021BA5
:10724400E0FCA3E0FDA3E0FEA3E02401FFE43EFE96
:10725400E43DFDE43CFC90021B124D6502712B7F62
:017264000128
:017265002206
:106C8E00900207E0FBA3E0FAA3E0F990001C124C7F
:106C9E008B900000E0FBA3E0FAA3E0F91280739062
:106CAE000000E0F9A3E0FAA3E0900218C9F0A3EA0D
:106CBE00F0A3E9F0900207E0FBA3E0FAA3E0F9905D
:106CCE000020124C8B900218E0FBA3E0FAA3E0F92F
:106CDE009001E8EF12499E900207E0FBA3E0FAA3B1
:106CEE00E0F9900020124C8BE4FFE4FDFC780812D2
:106CFE004C45900218E0FBA3E0FAA3E0F99001E9FD
:106D0E00EF12499E900207E0FBA3E0FAA3E0F99090
:106D1E000020124C8BE4FFFEE4FC7810124C4590E0
:106D2E000218E0FBA3E0FAA3E0F99001EAEF1249A2
:106D3E009E900207E0FBA3E0FAA3E0F99000201278
:106D4E004C8BE4FFFEFDEC7818124C45900218E0D7
:106D5E00FBA3E0FAA3E0F99001EBEF12499E90023B
:106D6E0007E0FBA3E0FAA3E0F9900024124C8B900D
:106D7E000218E0FBA3E0FAA3E0F99001ECEF124950
:106D8E009E900207E0FBA3E0FAA3E0F99000241224
:106D9E004C8BE4FFE4FDFC7808124C45900218E0A1
:106DAE00FBA3E0FAA3E0F99001EDEF12499E9002E9
:106DBE0007E0FBA3E0FAA3E0F9900024124C8BE469
:106DCE00FFFEE4FC7810124C45900218E0FBA3E0A5
:106DDE00FAA3E0F99001EEEF12499E900207E0FB54
:106DEE00A3E0FAA3E0F9900024124C8BE4FFFEFD21
:106DFE00EC7818124C45900218E0FBA3E0FAA3E0E1
:106E0E00F99001EFEF12499E900207E0FBA3E0FA22
:106E1E00A3E0F990001C124C8B900000E0FBA3E065
:096E2E00FAA3E0F912874F7F007E
:016E37002238
:1057370078157C027D017BFF7A8C79147E007F03CC
:105747001248ED900000E0FBA3E0FAA3E0F97F0028
:105757007E007D007C00128073900000E0FBA3E0D8
:10576700FAA3E0F9124913FF900215E0B5071C9060
:10577700000112492CFF900216E0B5070E900002B7
:1057870012492CFF900217E06F601DE924C6F9EA61
:105797003401FA7D04126E47900207E0FBA3E0FA9A
:1057A700A3E0F9124CBB8012900207E0FBA3E0FADA
:1057B700A3E0F9124DA200000000900207E0FBA34E
:1057C700E0FAA3E0F9124C6B900000E0FBA3E0FACB
:1057D700A3E0F9128073900000E0FBA3E0FAA3E0D6
:1057E700F9900212EBF0A3EAF0A3E9F0900052124D
:1057F700492C64467030900212E0FBA3E0FAA3E064
:10580700F990005312492CB4411C90005412492CB2
:10581700B4541390005512492CB4330A9000561211
:10582700492C643260037F0222900212E0FBA3E05E
:10583700FAA3E0240B126E41900207E0FBA3E0FA03
:10584700A3E0F9900008124CD5900212E0FBA3E008
:10585700FAA3E02424F9E43AFA7D04126E47900291
:1058670007E0FBA3E0FAA3E0F990000C124CD590F7
:105877000212E0FBA3E0FAA3E0F990000D12492C15
:10588700FFE4FCFDFE900207E0FBA3E0FAA3E0F9CA
:10589700900010124CD5900212126E38900207E059
:1058A700FBA3E0FAA3E0F9124D15EF2BFFEE3AFE4A
:1058B700ED39FDEC38FC900207E0FBA3E0FAA3E02A
:1058C700F9900014124CD5900212E0FBA3E0FAA362
:1058D700E0F990001012492CFFE4FCFDFE9002074E
:1058E700E0FBA3E0FAA3E0F990000C124D35124A51
:1058F700F3900207E0FBA3E0FAA3E0F9900014128B
:105907004D35EF2BFFEE3AFEED39FDEC38FC9002FA
:1059170007E0FBA3E0FAA3E0F9900018124CD5903A
:105927000212E0FBA3E0FAA3E02420F9E43AFA7DAF
:1059370004126E47E47B02FAF9F8124B7E900207D5
:10594700E0FBA3E0FAA3E0F9900004124CD5E924A8
:105957001CF9E43AFA127500EF60037F0122900206
:1059670007E0FBA3E0FAA3E0F990001C124C8B9030
:105977000000E0FBA3E0FAA3E0F9128073900000B7
:10598700E0FBA3E0FAA3E024E8F9EA3401FA7D0496
:10599700126E47900207E0FBA3E0FAA3E0F990003C
:1059A70020124CD5900020124C8B74FFFBFAF9F8AB
:1059B700C3124C34706D900207E0FBA3E0FAA3E03A
:1059C700F9900004124C8BE47B02FAF9F8124AF3BF
:1059D700900207E0FBA3E0FAA3E0F9900018124D4C
:1059E70035C3EF9BFFEE9AFEED99FDEC98FC900214
:1059F70007E0FBA3E0FAA3E0F9900010124D35127F
:105A07004B7EEF24FFFFEE34FFFEED34FFFDEC3459
:105A1700FFFC900207E0FBA3E0FAA3E0F990002067
:105A2700124CD5900207E0FBA3E0FAA3E02424F987
:105A3700E43AFA127109EF60037F0122126C8E7F3C
:015A4700005E
:015A4800223B
:10844000900367E0FBA3E0FAA3E0F990001D124C53
:018450008BA0
:06845100900294124D653B
:108457007F007E007D007C00900207E0FBA3E0FA2E
:10846700A3E0F9900014124D35C000C001C002C04E
:1084770003E47B80FAF9F8900294E0FCA3E0FDA303
:10848700E0FEA3E0FF124B7ED003D002D001D00064
:10849700EF2BFFEE3AFEED39FDEC38FC900000E0E3
:1084A700FBA3E0FAA3E0F9128073900000E0F9A3C0
:1084B700E0FAA3E0900298C9F0A3EAF0A3E9F090EC
:1084C7000294A3A3A3E0547FFFE4FEFDFC7B04FA20
:1084D700F9F8124AF3900298E0FBA3E0FAA3E02F21
:0C84E700F9EA3EFAEB3DFB7D04126E4703
:0184F3002266
:10334D00E0FBA3E0FAA3E0F9A3E0FCA3E0FDA3E01A
:04335D00FEA3E0FFEC
:0F336100900367EBF0A3EAF0A3E9F0A3124D6528
:10337000900207E0FBA3E0FAA3E0F9900008124CEA
:103380008B900010124D35124AF390036E124D656A
:10339000900372124D7100000000900376124D717F
:1033A0000000000090037A124D71000000009003AD
:1033B0007E124D7100000000900382124D710000DA
:1033C0000000900386124D710000000090038A12E5
:1033D0004D7100000000900367E0F9A3E0FAA3E05C
:1033E000900004C9F0A3EAF0A3E9F0900367E0FBC2
:1033F000A3A3E0F9900019124C8B90036AE0F8A3A4
:10340000E0F9A3E0FAA3E0FBC3124C34501290039E
:1034100067E0FBA3E0FAA3E0F9900027E412499EDD
:10342000900367E0FBA3E0FAA3E0F9900028124CB8
:103430008B90036AE0F8A3E0F9A3E0FAA3E0FBC3F2
:10344000124C347002FF22900367E0FBA3E0FAA362
:10345000E0F9900028124C8B90036AE0F8A3E0F9A1
:10346000A3E0FAA3E0FBC3124C3440030234F8900B
:103470000367E0FBA3E0FAA3E0F9900015124C8B80
:1034800090001D124CD590001D124C8BEF24FEFFB6
:10349000EE34FFFEED34FFFDEC34FFFC900207E05C
:1034A000FBA3E0FAA3E0F9900010124D35124AF3A5
:1034B000900207E0FBA3E0FAA3E0F9900018124D98
:1034C00035EF2BFFEE3AFEED39FDEC38FC9003674B
:1034D000E0FBA3E0FAA3E0F9900021124CD59000A4
:1034E00025E4F5F0124AC6900028124DBC000000F9
:1034F00000900027E412499E900367E0FBA3E0FAE6
:10350000A3E0F9900028124D3590036AE0FCA3E097
:10351000FDA3E0FEA3E0C39BFFEE9AFEED99FDEC58
:1035200098FC90037E124D65900367E0FBA3E0FAE0
:10353000A3E0F9900019124C8B90036AE0F8A3E025
:10354000F9A3E0FAA3E0FBC3124C344058900367A0
:10355000E0FBA3E0FAA3E0F9900028124D35C0008B
:10356000C001C002C003900367E0FBA3E0FAA3E040
:10357000F9900019124C8BD003D002D001D000C3B7
:10358000EF9BFFEE9AFEED99FDEC98FC90037E1206
:103590004D65900367E0FBA3E0FAA3E0F9900027F4
:1035A000740112499E900367E0FBA3E0FAA3E0F9DF
:1035B000900028124C8B90036EE0F8A3E0F9A3E092
:1035C000FAA3E0FB124B7EAC00AD01AE02AF03E408
:1035D000FBFAF9F8C3124C347003023DBF90036745
:1035E000E0FBA3E0FAA3E0F9900025124A41FFAE08
:1035F000F0E4FCFDC004C005C006C007900207E06F
:10360000FBA3E0FAA3E0F9900008124C8BD003D0A2
:1036100002D001D000C3EF9BFFEE9AFEED99FDECC6
:1036200098FC90037EE0F8A3E0F9A3E0FAA3E0FBA6
:10363000D3124C344003023831900367E0FBA3E01F
:10364000FAA3E0F9900025124A41FFAEF0E4FCFD38
:10365000C004C005C006C007900207E0FBA3E0FA63
:10366000A3E0F9900008124C8BD003D002D001D017
:1036700000C3EF9BFFEE9AFEED99FDEC98FC9003E2
:103680007EE0F8A3E0F9A3E0FAA3E0FBC3124C3418
:103690006003023810900367E0FBA3E0FAA3E0F9AF
:1036A00090001D124C8BEF24FEFFEE34FFFEED3434
:1036B000FFFDEC34FFFC900207E0FBA3E0FAA3E07F
:1036C000F9900010124D35124AF3900207E0FBA367
:1036D000E0FAA3E0F9900018124D35EF2BFFEE3A17
:1036E000FEED39FDEC38FCC004C005C006C00790F3
:1036F0000367E0FBA3E0FAA3E0F9900021124C8BF2
:10370000D003D002D001D000C3EF9BFFEE9AFEEDB4
:1037100099FDEC98FCC004C005C006C007900207E4
:10372000E0FBA3E0FAA3E0F9900010124C8BEF2429
:10373000FFFBEE34FFFAED34FFF9EC34FFF8D0076D
:10374000D006D005D004C3124C3460030237D590A4
:103750000367E0FBA3E0FAA3E0F990002712492CED
:10376000701412844B900367E0FBA3E0FAA3E0F926
:1037700090001D124CD5900367E0FBA3E0FAA3E094
:10378000F990001D124C8BEF24FEFFEE34FFFEED8E
:1037900034FFFDEC34FFFC900207E0FBA3E0FAA34A
:1037A000E0F9900010124D35124AF3900207E0FB49
:1037B000A3E0FAA3E0F9900018124D35EF2BFFEECD
:1037C0003AFEED39FDEC38FC900367E0FBA3E0FA2C
:1037D000A3E0F9801E900367E0FBA3E0FAA3E0F901
:1037E000900021124C8BEF2401FFE43EFEE43DFDEE
:1037F000E43CFC900021124CD5900367E0FBA3E071
:10380000FAA3E0F9900025E4F5F0124AC60240DC84
:1038100090037EA3A3E0FEA3E0FF900367E0FBA379
:10382000E0FAA3E0F9900025EE8FF0124A79024009
:10383000DC900367E0FBA3E0FAA3E0F99000251217
:103840004A41FFAEF0E4FCFDC004C005C006C0075D
:10385000900207E0FBA3E0FAA3E0F9900008124C05
:103860008BD003D002D001D000C3EF9BFFEE9AFEB5
:10387000ED99FDEC98FC900372124D6590038AE07F
:10388000FCA3E0FDA3E0FEA3E0FF900372E0F8A339
:10389000E0F9A3E0FAA3E0FBEF2BFFEE3AFEED39EF
:1038A000FDEC38FC90038A124D65900367E0FBA3A2
:1038B000E0FAA3E0F990001D124C8BEF24FEFFEE1E
:1038C00034FFFEED34FFFDEC34FFFC900207E0FB1B
:1038D000A3E0FAA3E0F9900010124D35124AF390DC
:1038E0000207E0FBA3E0FAA3E0F9900018124D35BF
:1038F000EF2BFFEE3AFEED39FDEC38FCC004C005BD
:10390000C006C007900367E0FBA3E0FAA3E0F990CC
:103910000021124C8BD003D002D001D000C3EF9B0A
:10392000FFEE9AFEED99FDEC98FCC004C005C006C0
:10393000C007900207E0FBA3E0FAA3E0F9900010B3
:10394000124C8BEF24FFFBEE34FFFAED34FFF9EC61
:1039500034FFF8D007D006D005D004C3124C347021
:1039600003D38001C35003023D4A900367E0FBA3E9
:10397000E0FAA3E0F9900021124C8BEF2401FFE460
:103980003EFEE43DFDE43CFC900021124CD590004D
:1039900025E4F5F0124AC690038AE0F8A3E0F9A303
:1039A000E0FAA3E0FB90037EE0FCA3E0FDA3E0FED1
:1039B000A3E0C39BFFEE9AFEED99FDEC98FC90030B
:1039C0007A124D65900367E0FBA3E0FAA3E0F9905B
:1039D000001D124C8BEF24FEFFEE34FFFEED34FF92
:1039E000FDEC34FFFC900207E0FBA3E0FAA3E0F952
:1039F000900010124D35124AF3900207E0FBA3E04D
:103A0000FAA3E0F9900018124D35EF2BFFEE3AFEC5
:103A1000ED39FDEC38FCC004C005C006C0079002BB
:103A200007E0FBA3E0FAA3E0F9900010124C8BEF43
:103A300024FFFFEE34FFFEED34FFFDEC34FFFCD03D
:103A400003D002D001D000EB2FFFEA3EFEE93DFD9E
:103A5000E83CFCC004C005C006C007900367E0FB5B
:103A6000A3E0FAA3E0F9900021124C8BEF24FFFBB6
:103A7000EE34FFFAED34FFF9EC34FFF8D007D0064E
:103A8000D005D004C3EF9BFFEE9AFEED99FDEC98B4
:103A9000FC900207E0FBA3E0FAA3E0F99000081213
:103AA0004D35124AF3900376124D65900376E0FC93
:103AB000A3E0FDA3E0FEA3E0FFA3E0F8A3E0F9A3E9
:103AC000E0FAA3E0FBD3124C344003023C659002C1
:103AD00007E0FBA3E0FAA3E0F9900008124D35904F
:103AE000037AE0FCA3E0FDA3E0FEA3E0FF124B7E1F
:103AF000900372124D6590038AE0F8A3E0F9A3E009
:103B0000FAA3E0FBC000C001C002C003900207E0BE
:103B1000FBA3E0FAA3E0F9900008124C8B9003722B
:103B2000E0F8A3E0F9A3E0FAA3E0FB124AF3D00324
:103B3000D002D001D000EB2FFFEA3EFEE93DFDE8C8
:103B40003CFC90038A124D65900376E0FCA3E0FDF7
:103B5000A3E0FEA3E0FFA3E0F8A3E0F9A3E0FAA34B
:103B6000E0FBC3124C346003023BFD900367E0FBB3
:103B7000A3E0FAA3E0F990002712492C70141284F4
:103B80004B900367E0FBA3E0FAA3E0F990001D125D
:103B90004CD5900367E0FBA3E0FAA3E0F990001D89
:103BA000124C8BEF24FEFFEE34FFFEED34FFFDECF4
:103BB00034FFFC900207E0FBA3E0FAA3E0F99000D9
:103BC00010124D35124AF3900207E0FBA3E0FAA36E
:103BD000E0F9900018124D35EF2BFFEE3AFEED396B
:103BE000FDEC38FC900367E0FBA3E0FAA3E0F9905A
:103BF0000021124CD5900025E4F5F0806290036717
:103C0000E0FBA3E0FAA3E02421F9E43AFAC002C001
:103C100001124C6B900372E0F8A3E0F9A3E0FAA361
:103C2000E02FFFEA3EFEE93DFDE83CFCD001D0027A
:103C3000124CBB90038AA3A3E0FEA3E0FBAA06906C
:103C4000037EA3A3E0FEA3E0C39BFFEE9AFE9003D6
:103C500067E0FBA3E0FAA3E0F9900025EE8FF012F5
:103C60004AC60240DC900367E0FBA3E0FAA3E0F958
:103C700090001D124C8BEF24FEFFEE34FFFEED345E
:103C8000FFFDEC34FFFC900207E0FBA3E0FAA3E0A9
:103C9000F9900010124D35124AF3900207E0FBA391
:103CA000E0FAA3E0F9900018124D35EF2BFFEE3A41
:103CB000FEED39FDEC38FC900207E0FBA3E0FAA32F
:103CC000E0F9900010124D35EF2BFFEE3AFEED3982
:103CD000FDEC38FC900367E0FBA3E0FAA3E0F99069
:103CE0000021124D35C3EF9BFFEE9AFEED99FDECDE
:103CF00098FC900372124D6590038AE0F8A3E0F9F6
:103D0000A3E0FAA3E0FBC000C001C002C003900220
:103D100007E0FBA3E0FAA3E0F9900008124C8B90B7
:103D20000372E0F8A3E0F9A3E0FAA3E0FB124AF380
:103D3000D003D002D001D000EB2FFFEA3EFEE93DD8
:103D4000FDE83CFC90038A124D65128440900367A5
:103D5000E0FBA3E0FAA3E0F990001D124CD590001F
:103D60001D124C8BEF24FEFFEE34FFFEED34FFFD01
:103D7000EC34FFFC900207E0FBA3E0FAA3E0F9902B
:103D80000010124D35124AF3900207E0FBA3E0FA4F
:103D9000A3E0F9900018124D35EF2BFFEE3AFEED3F
:103DA00039FDEC38FC900367E0FBA3E0FAA3E0F9EF
:103DB000900021124CD5900025E4F5F0124AC690EF
:103DC000038AE0F8A3E0F9A3E0FAA3E0FB90037E06
:103DD000E0FCA3E0FDA3E0FEA3E0C39BFFEE9AFEA0
:103DE000ED99FDEC98FCE4FBFAF9F8C3124C344071
:103DF000030240DC90038AE0F8A3E0F9A3E0FAA311
:103E0000E0FB90037EE0FCA3E0FDA3E0FEA3E0C3A3
:103E10009BFFEE9AFEED99FDEC98FC90036EE0F8A6
:103E2000A3E0F9A3E0FAA3E0FB124B7E9003861215
:103E30004D65900382124D7100000000900386E0F2
:103E4000FCA3E0FDA3E0FEA3E0FF900382E0F8A363
:103E5000E0F9A3E0FAA3E0FBC3124C344003023FB5
:103E60000A90038AE0FCA3E0FDA3E0FEA3E0FF903C
:103E7000036EE0F8A3E0F9A3E0FAA3E0FBEF2BFF69
:103E8000EE3AFEED39FDEC38FC90038A124D659058
:103E9000038AE0F8A3E0F9A3E0FAA3E0FB90037E35
:103EA000E0FCA3E0FDA3E0FEA3E0C39BFFEE9AFECF
:103EB000ED99FDEC98FCE4FBFAF9F8C3124C347070
:103EC00013900367E0FBA3E0FAA3E0F99000271248
:103ED000492C7014128440900367E0FBA3E0FAA31E
:103EE000E0F990001D124CD5900382E0FCA3E0FDA8
:103EF000A3E0FEA3E02401FFE43EFEE43DFDE43C3C
:103F0000FC900382124D65023E3C900367E0FBA3E8
:103F1000E0FAA3E0F990001D124C8BEF24FEFFEEB7
:103F200034FFFEED34FFFDEC34FFFC900207E0FBB4
:103F3000A3E0FAA3E0F9900010124D35124AF39075
:103F40000207E0FBA3E0FAA3E0F9900018124D3558
:103F5000EF2BFFEE3AFEED39FDEC38FC900367E005
:103F6000FBA3E0FAA3E0F9900021124CD590038A5C
:103F7000E0F8A3E0F9A3E0FAA3E0FB90037EE0FC05
:103F8000A3E0FDA3E0FEA3E0C39BFFEE9AFEED9944
:103F9000FDEC98FCE4FBFAF9F8C3124C3440030240
:103FA00040DC900207E0FBA3E0FAA3E0F9900008F0
:103FB000124D35C000C001C002C00390038AE0F872
:103FC000A3E0F9A3E0FAA3E0FB90037EE0FCA3E00A
:103FD000FDA3E0FEA3E0C39BFFEE9AFEED99FDEC8E
:103FE00098FCD003D002D001D000124B7E90037217
:103FF000124D6590038AE0F8A3E0F9A3E0FAA3E08C
:10400000FBC000C001C002C003900207E0FBA3E0B8
:10401000FAA3E0F9900008124C8B900372E0F8A329
:10402000E0F9A3E0FAA3E0FB124AF3D003D002D0F8
:1040300001D000EB2FFFEA3EFEE93DFDE83CFC909D
:10404000038A124D65900367E0FBA3E0FAA3E02426
:1040500021F9E43AFAC002C001124C6B900372E0FD
:10406000F8A3E0F9A3E0FAA3E02FFFEA3EFEE93D62
:10407000FDE83CFCD001D002124CBB90038AE0F872
:10408000A3E0F9A3E0FAA3E0FB90037EE0FCA3E049
:10409000FDA3E0FEA3E0C39BFFEE9AFEED99FDECCD
:1040A00098FCE4FBFAF9F8C3124C34502F90038AC1
:1040B000A3A3E0FEA3E0FBAA0690037EA3A3E0FE79
:1040C000A3E0C39BFFEE9AFE900367E0FBA3E0FA38
:1040D000A3E0F9900025EE8FF0124AC6900367E046
:1040E000FBA3E0FAA3E02428F9E43AFAC002C001F5
:1040F000124C6B90037EE0F8A3E0F9A3E0FAA3E092
:104100002FFFEA3EFEE93DFDE83CFCD001D0021263
:044110004CBB7F0025
:014114002288
:101C5C009002FE124D659002FBEBF0A3EAF0A3E9B3
:011C6C00F087
:101C6D00900309124D710000000090030D124D718B
:101C7D0000000000900311124D7100000000900350
:101C8D0015124D7100000000900319124D710000E6
:101C9D00000090031D124D710000000090032112F1
:101CAD004D7100000000900325124D7100000000E1
:101CBD00900329124D710000000090032D124D71FB
:101CCD0000000000900004EBF0A3EAF0A3E9F0900F
:101CDD0002FB12334DE4FFFEFDFC900302E0F8A37E
:101CED00E0F9A3E0FAA3E0FBC3124C347005FFFE4C
:101CFD00FDFC22900207E0FBA3E0FAA3E0F99000BF
:101D0D0008124C8B900010124D35124AF3900309B6
:101D1D00124D659002FBE0FBA3E0FAA3E0F9900001
:101D2D0028124C8B900302E0F8A3E0F9A3E0FAA38C
:101D3D00E02FFFEA3EFEE93DFDE83CFC9002FBA3EF
:101D4D00E0FAA3E0F9900019124D35D3124C34503E
:101D5D00589002FBE0FBA3E0FAA3E0F990002812F3
:101D6D004D35C000C001C002C0039002FBE0FBA3D3
:101D7D00E0FAA3E0F9900019124C8BD003D002D0F9
:101D8D0001D000C3EF9BFFEE9AFEED99FDEC98FCA0
:101D9D00900302124D659002FBE0FBA3E0FAA3E075
:101DAD00F9900027740112499E9002FBE0FBA3E01D
:101DBD00FAA3E0F9900028124C8B900309E0F8A3E8
:101DCD00E0F9A3E0FAA3E0FB124B7EAC00AD01AE4F
:101DDD0002AF03E4FBFAF9F8C3124C347003022787
:101DED00619002FBE0FBA3E0FAA3E0F99000211261
:101DFD004C8B900000E0FBA3E0FAA3E0F912807396
:101E0D009002FBE0FBA3E0FAA3E0F9900025124A53
:101E1D0041FFAEF0E4FCFDC004C005C006C0079054
:101E2D000207E0FBA3E0FAA3E0F9900008124C8B47
:101E3D00D003D002D001D000C3EF9BFFEE9AFEED90
:101E4D0099FDEC98FC90031D124D6590031DE0FC6F
:101E5D00A3E0FDA3E0FEA3E0FF900302E0F8A3E002
:101E6D00F9A3E0FAA3E0FBD3124C34400302207136
:101E7D009002FBE0FBA3E0FAA3E0F9900025124AE3
:101E8D0041FF900000E0FBA3E0FAA3E02FF9EA3553
:101E9D00F0FA9003EBEBF0A3EAF0A3E9F090030264
:101EAD00128385900302E0FCA3E0FDA3E0FEA3E016
:101EBD00FF90031DE0F8A3E0F9A3E0FAA3E0FBC354
:101ECD00124C3460030220509002FBE0FBA3E0FAB9
:101EDD00A3E0F990001D124C8BEF24FEFFEE34FFB2
:101EED00FEED34FFFDEC34FFFC900207E0FBA3E0B8
:101EFD00FAA3E0F9900010124D35124AF390020743
:101F0D00E0FBA3E0FAA3E0F9900018124D35EF2B9A
:101F1D00FFEE3AFEED39FDEC38FCC004C005C006FD
:101F2D00C0079002FBE0FBA3E0FAA3E0F9900021CB
:101F3D00124C8BD003D002D001D000C3EF9BFFEE2B
:101F4D009AFEED99FDEC98FCC004C005C006C007D3
:101F5D00900207E0FBA3E0FAA3E0F9900010124C09
:101F6D008BEF24FFFBEE34FFFAED34FFF9EC34FF79
:101F7D00F8D007D006D005D004C3124C346003024C
:101F8D0020159002FBE0FBA3E0FAA3E0F9900027F7
:101F9D0012492C701412844B9002FBE0FBA3E0FA63
:101FAD00A3E0F990001D124CD59002FBE0FBA3E0DD
:101FBD00FAA3E0F990001D124C8BEF24FEFFEE34D6
:101FCD00FFFEED34FFFDEC34FFFC900207E0FBA3B8
:101FDD00E0FAA3E0F9900010124D35124AF3900289
:101FED0007E0FBA3E0FAA3E0F9900018124D35EFDE
:101FFD002BFFEE3AFEED39FDEC38FC9002FBE0FBD9
:10200D00A3E0FAA3E0F9801E9002FBE0FBA3E0FA47
:10201D00A3E0F9900021124C8BEF2401FFE43EFE6A
:10202D00E43DFDE43CFC900021124CD59002FBE018
:10203D00FBA3E0FAA3E0F9900025E4F5F0124AC6FF
:10204D00023308900302A3A3E0FEA3E0FF9002FB7E
:10205D00E0FBA3E0FAA3E0F9900025EE8FF0124A21
:10206D00790233089002FBE0FBA3E0FAA3E0F990BC
:10207D000025124A41FFAEF0E4FCFDC004C005C0CE
:10208D0006C007900207E0FBA3E0FAA3E0F9900079
:10209D0008124C8BD003D002D001D000C3EF9BFFB0
:1020AD00EE9AFEED99FDEC98FC90031D124D659096
:1020BD0002FBE0FBA3E0FAA3E0F9900025124A41F0
:1020CD00FF900000E0FBA3E0FAA3E02FF9EA35F062
:1020DD00FA9003EBEBF0A3EAF0A3E9F090031D12E5
:1020ED00838590032DE0FCA3E0FDA3E0FEA3E0FFBC
:1020FD0090031DE0F8A3E0F9A3E0FAA3E0FBEF2BBA
:10210D00FFEE3AFEED39FDEC38FC90032D124D65D6
:10211D009002FBE0FBA3E0FAA3E0F990001D124C46
:10212D008BEF24FEFFEE34FFFEED34FFFDEC34FFAC
:10213D00FC900207E0FBA3E0FAA3E0F99000101277
:10214D004D35124AF3900207E0FBA3E0FAA3E0F944
:10215D00900018124D35EF2BFFEE3AFEED39FDECE8
:10216D0038FCC004C005C006C0079002FBE0FBA30D
:10217D00E0FAA3E0F9900021124C8BD003D002D0ED
:10218D0001D000C3EF9BFFEE9AFEED99FDEC98FC9C
:10219D00C004C005C006C007900207E0FBA3E0FA2B
:1021AD00A3E0F9900010124C8BEF24FFFBEE34FFEF
:1021BD00FAED34FFF9EC34FFF8D007D006D005D096
:1021CD0004C3124C347003D38001C350030226E9BB
:1021DD009002FBE0FBA3E0FAA3E0F9900021124C82
:1021ED008BEF2401FFE43EFEE43DFDE43CFC90005A
:1021FD0021124CD5900025E4F5F0124AC690032D1E
:10220D00E0F8A3E0F9A3E0FAA3E0FB900302E0FC01
:10221D00A3E0FDA3E0FEA3E0C39BFFEE9AFEED99C4
:10222D00FDEC98FC900325124D659002FBE0FBA39D
:10223D00E0FAA3E0F990001D124C8BEF24FEFFEEA7
:10224D0034FFFEED34FFFDEC34FFFC900207E0FBA4
:10225D00A3E0FAA3E0F9900010124D35124AF39065
:10226D000207E0FBA3E0FAA3E0F9900018124D3548
:10227D00EF2BFFEE3AFEED39FDEC38FCC004C00546
:10228D00C006C007900207E0FBA3E0FAA3E0F990B7
:10229D000010124C8BEF24FFFFEE34FFFEED34FFE8
:1022AD00FDEC34FFFCD003D002D001D000EB2FFFAA
:1022BD00EA3EFEE93DFDE83CFCC004C005C006C099
:1022CD00079002FBE0FBA3E0FAA3E0F990002112D6
:1022DD004C8BEF24FFFBEE34FFFAED34FFF9EC34B9
:1022ED00FFF8D007D006D005D004C3EF9BFFEE9AC0
:1022FD00FEED99FDEC98FC900207E0FBA3E0FAA33C
:10230D00E0F9900008124D35124AF3900321124D59
:10231D0065900321E0FCA3E0FDA3E0FEA3E0FFA395
:10232D00E0F8A3E0F9A3E0FAA3E0FBD3124C3440AC
:10233D00030225B5900207E0FBA3E0FAA3E0F990B4
:10234D000008124D35900325E0FCA3E0FDA3E0FE4F
:10235D00A3E0FF124B7E90031D124D659002FBE032
:10236D00FBA3E0FAA3E0F9900021124C8B9003CE71
:10237D00124D6590032DA3E0FDA3E0FEA3E0FF90B9
:10238D000306E0FBA3E0FAA3E02FF9EA3EFAEB3DEA
:10239D009003D2F0A3EAF0A3E9F090031DE0FCA3B3
:1023AD00E0FDA3E0FEA3E0FF12813990032DE0F8DC
:1023BD00A3E0F9A3E0FAA3E0FBC000C001C002C096
:1023CD0003900207E0FBA3E0FAA3E0F990000812E6
:1023DD004C8B90031DE0F8A3E0F9A3E0FAA3E0FB1A
:1023ED00124AF3D003D002D001D000EB2FFFEA3E0A
:1023FD00FEE93DFDE83CFC90032D124D6590032157
:10240D00E0FCA3E0FDA3E0FEA3E0FFA3E0F8A3E062
:10241D00F9A3E0FAA3E0FBC3124C3460030224C01D
:10242D009002FBE0FBA3E0FAA3E0F990002712492C
:10243D002C701412844B9002FBE0FBA3E0FAA3E096
:10244D00F990001D124CD59002FBE0FBA3E0FAA31E
:10245D00E0F990001D124C8BEF24FEFFEE34FFFED1
:10246D00ED34FFFDEC34FFFC900207E0FBA3E0FA36
:10247D00A3E0F9900010124D35124AF3900207E0D7
:10248D00FBA3E0FAA3E0F9900018124D35EF2BFFF6
:10249D00EE3AFEED39FDEC38FC9002FBE0FBA3E0DB
:1024AD00FAA3E0F9900021124CD5900025E4F5F047
:1024BD000225AF9002FBE0FBA3E0FAA3E02421F993
:1024CD00E43AFAC002C001124C6B90031DE0F8A370
:1024DD00E0F9A3E0FAA3E02FFFEA3EFEE93DFDE8B7
:1024ED003CFCD001D002124CBB90032DE0F8A3E0D0
:1024FD00F9A3E0FAA3E0FB900302E0FCA3E0FDA347
:10250D00E0FEA3E0C39BFFEE9AFEED99FDEC98FC77
:10251D0090031D124D659002FBE0FBA3E0FAA3E0D2
:10252D00F9900021124C8B900000E0FBA3E0FAA380
:10253D00E0F912807390032DA3E0FDA3E0FEA3E06C
:10254D00FF900306E0FBA3E0FAA3E02FF9EA3EFAC1
:10255D00EB3DFBC002C001900000E0F9A3E0FAA33F
:10256D00E09003EBC9F0A3EAF0A3E9F090031DE0BE
:10257D00FCA3E0FDA3E0FEA3E0FF9003EE124D658A
:10258D00D001D0021283A190031DA3A3E0FEA3E00E
:10259D00FF9002FBE0FBA3E0FAA3E0F9900025EE2B
:1025AD008FF0124AC60233089002FBE0FBA3E0FA5B
:1025BD00A3E0F990001D124C8BEF24FEFFEE34FFCB
:1025CD00FEED34FFFDEC34FFFC900207E0FBA3E0D1
:1025DD00FAA3E0F9900010124D35124AF39002075C
:1025ED00E0FBA3E0FAA3E0F9900018124D35EF2BB4
:1025FD00FFEE3AFEED39FDEC38FC900207E0FBA34F
:10260D00E0FAA3E0F9900010124D35EF2BFFEE3AF2
:10261D00FEED39FDEC38FC9002FBE0FBA3E0FAA3E4
:10262D00E0F9900021124D35C3EF9BFFEE9AFEEDC0
:10263D0099FDEC98FC90031D124D659002FBE0FB9B
:10264D00A3E0FAA3E0F9900021124C8B9003CE1277
:10265D004D6590032DA3E0FDA3E0FEA3E0FF9003E5
:10266D0006E0FBA3E0FAA3E02FF9EA3EFAEB3D907A
:10267D0003D2F0A3EAF0A3E9F090031DE0FCA3E080
:10268D00FDA3E0FEA3E0FF12813990032DE0F8A336
:10269D00E0F9A3E0FAA3E0FBC000C001C002C00353
:1026AD00900207E0FBA3E0FAA3E0F9900008124CBA
:1026BD008B90031DE0F8A3E0F9A3E0FAA3E0FB1271
:1026CD004AF3D003D002D001D000EB2FFFEA3EFE3B
:1026DD00E93DFDE83CFC90032D124D659002FB1287
:1026ED0084439002FBE0FBA3E0FAA3E0F990001D08
:1026FD00124CD590001D124C8BEF24FEFFEE34FFD3
:10270D00FEED34FFFDEC34FFFC900207E0FBA3E08F
:10271D00FAA3E0F9900010124D35124AF39002071A
:10272D00E0FBA3E0FAA3E0F9900018124D35EF2B72
:10273D00FFEE3AFEED39FDEC38FC9002FBE0FBA319
:10274D00E0FAA3E0F9900021124CD5900025E4F5B4
:10275D00F0124AC690032DE0F8A3E0F9A3E0FAA326
:10276D00E0FB900302E0FCA3E0FDA3E0FEA3E0C3C9
:10277D009BFFEE9AFEED99FDEC98FC900321124D16
:10278D0065900309E0F8A3E0F9A3E0FAA3E0FB905C
:10279D000321E0FCA3E0FDA3E0FEA3E0FF124B7ECE
:1027AD00900329124D65E4FFFEFDFC900329E0F82E
:1027BD00A3E0F9A3E0FAA3E0FBD3124C34500302DB
:1027CD0030ED9002FBE0FBA3E0FAA3E0F990001DD1
:1027DD00124C8B900319124D65900315124D659097
:1027ED00030D124D7100000001900329E0FCA3E0E0
:1027FD00FDA3E0FEA3E0FF90030DE0F8A3E0F9A335
:10280D00E0FAA3E0FBC3124C344003022A08900304
:10281D0019E0FCA3E0FDA3E0FEA3E0FF12845190BC
:10282D000311124D65900311E0FCA3E0FDA3E0FE42
:10283D00A3E024FFFFEE34FFFEED34FFFDEC34FF8B
:10284D00FC900319E0F8A3E0F9A3E0FAA3E0FBC3C1
:10285D00124C347014900311E0FCA3E0FDA3E0FED4
:10286D00A3E0FF9003190229E3900207E0FBA3E028
:10287D00FAA3E0F9900010124D35C000C001C0025E
:10288D00C003900315E0F8A3E0F9A3E0FAA3E0FB81
:10289D00A3E0FCA3E0FDA3E0FEA3E0C39BFFEE9A43
:1028AD00FEED99FDEC98FCEF2401FFE43EFEE43DC6
:1028BD00FDE43CFCD003D002D001D000124AF3C09D
:1028CD0004C005C006C007900207E0FBA3E0FAA311
:1028DD00E0F9900010124D35900315E0FCA3E0FDDA
:1028ED00A3E0FEA3E024FEFFEE34FFFEED34FFFD7A
:1028FD00EC34FFFC124AF3900207E0FBA3E0FAA3CD
:10290D00E0F9900018124D35EF2BFFEE3AFEED3940
:10291D00FDEC38FC9003CE124D6590032DA3E0FD28
:10292D00A3E0FEA3E0FF900306E0FBA3E0FAA3E023
:10293D002FF9EA3EFAEB3D9003D2F0A3EAF0A3E9BA
:10294D00F0D007D006D005D00412813990032DE0C8
:10295D00F8A3E0F9A3E0FAA3E0FBC000C001C002B8
:10296D00C003900315E0F8A3E0F9A3E0FAA3E0FBA0
:10297D00A3E0FCA3E0FDA3E0FEA3E0C39BFFEE9A62
:10298D00FEED99FDEC98FCEF2401FFE43EFEE43DE5
:10299D00FDE43CFC900309E0F8A3E0F9A3E0FAA301
:1029AD00E0FB124AF3D003D002D001D000EB2FFF91
:1029BD00EA3EFEE93DFDE83CFC90032D124D65908D
:1029CD000311E0FCA3E0FDA3E0FEA3E0FF900319DB
:1029DD00124D65900315124D6590030DE0FCA3E0BB
:1029ED00FDA3E0FEA3E02401FFE43EFEE43DFDE493
:1029FD003CFC90030D124D650227F6900309E0F89B
:102A0D00A3E0F9A3E0FAA3E0FB900321E0FCA3E02F
:102A1D00FDA3E0FEA3E0FF124B7EAC00AD01AE02C4
:102A2D00AF0390031D124D65E4FFFEFDFC90031DE9
:102A3D00E0F8A3E0F9A3E0FAA3E0FBD3124C345085
:102A4D0003022F5B90031DE0FCA3E0FDA3E0FEA3BA
:102A5D00E0FF900207E0FBA3E0FAA3E0F990000885
:102A6D00124D35124B7E90031D124D65900319E0EA
:102A7D00FCA3E0FDA3E0FEA3E0FF1284519003113F
:102A8D00124D65900311E0FCA3E0FDA3E0FEA3E071
:102A9D0024FFFFEE34FFFEED34FFFDEC34FFFC9020
:102AAD000319E0F8A3E0F9A3E0FAA3E0FBC3124C8D
:102ABD00349002076003022C56E0FBA3E0FAA3E07A
:102ACD00F9900010124D35C000C001C002C0039036
:102ADD000315E0F8A3E0F9A3E0FAA3E0FBA3E0FC03
:102AED00A3E0FDA3E0FEA3E0C39BFFEE9AFEED99EC
:102AFD00FDEC98FCEF2401FFE43EFEE43DFDE43CDB
:102B0D00FCD003D002D001D000124AF390031DE097
:102B1D00F8A3E0F9A3E0FAA3E02FFFEA3EFEE93DBA
:102B2D00FDE83CFCC004C005C006C007900207E0EC
:102B3D00FBA3E0FAA3E0F9900010124D35900315B8
:102B4D00E0FCA3E0FDA3E0FEA3E024FEFFEE34FFD6
:102B5D00FEED34FFFDEC34FFFC124AF3900207E06A
:102B6D00FBA3E0FAA3E0F9900018124D35EF2BFF0F
:102B7D00EE3AFEED39FDEC38FC9003CE124D65902A
:102B8D00032DA3E0FDA3E0FEA3E0FF900306E0FB11
:102B9D00A3E0FAA3E02FF9EA3EFAEB3D9003D2F061
:102BAD00A3EAF0A3E9F0D007D006D005D004128136
:102BBD003990032DE0F8A3E0F9A3E0FAA3E0FBC000
:102BCD0000C001C002C003900207E0FBA3E0FAA31E
:102BDD00E0F9900010124D35C000C001C002C003D5
:102BED00900315E0F8A3E0F9A3E0FAA3E0FBA3E05E
:102BFD00FCA3E0FDA3E0FEA3E0C39BFFEE9AFEED78
:102C0D0099FDEC98FCEF2401FFE43EFEE43DFDE46C
:102C1D003CFCD003D002D001D000124AF390031D2A
:102C2D00E0F8A3E0F9A3E0FAA3E02FFFEA3EFEE906
:102C3D003DFDE83CFC900207E0FBA3E0FAA3E0F9C0
:102C4D00900008124D35022E69E0FBA3E0FAA3E0D7
:102C5D00F9900010124D35C000C001C002C00390A4
:102C6D000315E0F8A3E0F9A3E0FAA3E0FBA3E0FC71
:102C7D00A3E0FDA3E0FEA3E0C39BFFEE9AFEED995A
:102C8D00FDEC98FCEF2401FFE43EFEE43DFDE43C49
:102C9D00FCD003D002D001D000124AF3C004C0050D
:102CAD00C006C007900207E0FBA3E0FAA3E0F9908D
:102CBD000010124D35900315E0FCA3E0FDA3E0FEDE
:102CCD00A3E024FEFFEE34FFFEED34FFFDEC34FFF8
:102CDD00FC124AF3900207E0FBA3E0FAA3E0F9909F
:102CED000018124D35EF2BFFEE3AFEED39FDEC38A5
:102CFD00FC9003CE124D6590032DA3E0FDA3E0FEE5
:102D0D00A3E0FF900306E0FBA3E0FAA3E02FF9EAAE
:102D1D003EFAEB3D9003D2F0A3EAF0A3E9F0D00721
:102D2D00D006D005D00412813990032DE0F8A3E030
:102D3D00F9A3E0FAA3E0FBC000C001C002C00390FC
:102D4D000315E0F8A3E0F9A3E0FAA3E0FBA3E0FC90
:102D5D00A3E0FDA3E0FEA3E0C39BFFEE9AFEED9979
:102D6D00FDEC98FCEF2401FFE43EFEE43DFDE43C68
:102D7D00FC900309E0F8A3E0F9A3E0FAA3E0FB124D
:102D8D004AF3D003D002D001D000EB2FFFEA3EFE74
:102D9D00E93DFDE83CFC90032D124D65900207E0E6
:102DAD00FBA3E0FAA3E0F9900010124D359003114A
:102DBD00E0FCA3E0FDA3E0FEA3E024FEFFEE34FF64
:102DCD00FEED34FFFDEC34FFFC124AF3900207E0F8
:102DDD00FBA3E0FAA3E0F9900018124D35EF2BFF9D
:102DED00EE3AFEED39FDEC38FC9003CE124D6590B8
:102DFD00032DA3E0FDA3E0FEA3E0FF900306E0FB9F
:102E0D00A3E0FAA3E02FF9EA3EFAEB3D9003D2F0EE
:102E1D00A3EAF0A3E9F090031DE0FCA3E0FDA3E01D
:102E2D00FEA3E0FF12813990032DE0F8A3E0F9A392
:102E3D00E0FAA3E0FBC000C001C002C0039002078E
:102E4D00E0FBA3E0FAA3E0F9900008124C8B90038D
:102E5D001DE0F8A3E0F9A3E0FAA3E0FB124AF3D0DA
:102E6D0003D002D001D000EB2FFFEA3EFEE93DFD7D
:102E7D00E83CFC90032D124D65900311E0FCA3E09E
:102E8D00FDA3E0FEA3E0FF9002FBE0FBA3E0FAA3AD
:102E9D00E0F990001D124CD5900207E0FBA3E0FA7B
:102EAD00A3E0F9900010124D35EF24FEFFEE34FF34
:102EBD00FEED34FFFDEC34FFFC124AF3900207E007
:102ECD00FBA3E0FAA3E0F9900018124D35EF2BFFAC
:102EDD00EE3AFEED39FDEC38FC90031DE0F8A3E071
:102EED00F9A3E0FAA3E02FFFEA3EFEE93DFDE83C41
:102EFD00FC9002FBE0FBA3E0FAA3E0F990002112A5
:102F0D004CD590032DE0F8A3E0F9A3E0FAA3E0FB84
:102F1D00900302E0FCA3E0FDA3E0FEA3E0C39BFF52
:102F2D00EE9AFEED99FDEC98FC90031D124D65E4B3
:102F3D00FFFEFDFC90031DE0F8A3E0F9A3E0FAA36A
:102F4D00E0FBD3124C345003023308023279900265
:102F5D0007E0FBA3E0FAA3E0F9900010124D35C095
:102F6D0000C001C002C003900315E0F8A3E0F9A36F
:102F7D00E0FAA3E0FBA3E0FCA3E0FDA3E0FEA3E0E9
:102F8D00C39BFFEE9AFEED99FDEC98FCEF2401FF3B
:102F9D00E43EFEE43DFDE43CFCD003D002D001D084
:102FAD0000124AF3C004C005C006C007900207E036
:102FBD00FBA3E0FAA3E0F9900010124D3590031534
:102FCD00E0FCA3E0FDA3E0FEA3E024FEFFEE34FF52
:102FDD00FEED34FFFDEC34FFFC124AF3900207E0E6
:102FED00FBA3E0FAA3E0F9900018124D35EF2BFF8B
:102FFD00EE3AFEED39FDEC38FC9003CE124D6590A6
:10300D00032DA3E0FDA3E0FEA3E0FF900306E0FB8C
:10301D00A3E0FAA3E02FF9EA3EFAEB3D9003D2F0DC
:10302D00A3EAF0A3E9F0D007D006D005D0041281B1
:10303D0039900319E0FCA3E0FDA3E0FEA3E0FF90AF
:10304D0002FBE0FBA3E0FAA3E0F990001D124CD5C2
:10305D0090002712492C7022900319E0FCA3E0FD8B
:10306D00A3E0FEA3E0FF1284519002FBE0FBA3E07E
:10307D00FAA3E0F990001D124CD59002FBE0FBA3E2
:10308D00E0FAA3E0F990001D124C8BEF24FEFFEE49
:10309D0034FFFEED34FFFDEC34FFFC900207E0FB46
:1030AD00A3E0FAA3E0F9900010124D35124AF39007
:1030BD000207E0FBA3E0FAA3E0F9900018124D35EA
:1030CD00EF2BFFEE3AFEED39FDEC38FC9002FBE004
:1030DD00FBA3E0FAA3E0F9900021124CD5023308CE
:1030ED00900207E0FBA3E0FAA3E0F9900008124D6F
:1030FD0035900321E0FCA3E0FDA3E0FEA3E0FF1269
:10310D004B7E90031D124D659002FBE0FBA3E0FA90
:10311D00A3E0F990001D124C8BEF24FEFFEE34FF5F
:10312D00FEED34FFFDEC34FFFC900207E0FBA3E065
:10313D00FAA3E0F9900010124D35124AF3900207F0
:10314D00E0FBA3E0FAA3E0F9900018124D35EF2B48
:10315D00FFEE3AFEED39FDEC38FC9003CE124D65D5
:10316D0090032DA3E0FDA3E0FEA3E0FF900306E096
:10317D00FBA3E0FAA3E02FF9EA3EFAEB3D9003D270
:10318D00F0A3EAF0A3E9F090031DE0FCA3E0FDA39A
:10319D00E0FEA3E0FF12813990032DE0F8A3E0F9E2
:1031AD00A3E0FAA3E0FBC000C001C002C00390027F
:1031BD0007E0FBA3E0FAA3E0F9900008124C8B9016
:1031CD00031DE0F8A3E0F9A3E0FAA3E0FB124AF334
:1031DD00D003D002D001D000EB2FFFEA3EFEE93D37
:1031ED00FDE83CFC90032D124D659002FBE0FBA326
:1031FD00E0FAA3E02421F9E43AFAC002C001124C2E
:10320D006B90031DE0F8A3E0F9A3E0FAA3E02FFF14
:10321D00EA3EFEE93DFDE83CFCD001D002124CBB7C
:10322D00900207E0FBA3E0FAA3E0F9900008124D2D
:10323D0035900321E0FCA3E0FDA3E0FEA3E0FF1227
:10324D004B7EAC00AD01AE02AF0390031D124D6578
:10325D00E4FFFEFDFC90031DE0F8A3E0F9A3E0FA06
:10326D00A3E0FBD3124C3450030233089002FBE071
:10327D00FBA3E0FAA3E0F9900021124C8B90000023
:10328D00E0FBA3E0FAA3E0F912807390032DA3E015
:10329D00FDA3E0FEA3E0FF900306E0FBA3E0FAA38D
:1032AD00E02FF9EA3EFAEB3DFBC002C001900000B1
:1032BD00E0F9A3E0FAA3E09003EBC9F0A3EAF0A3D1
:1032CD00E9F090031DE0FCA3E0FDA3E0FEA3E0FF09
:1032DD009003EE124D65D001D0021283A190031D13
:1032ED00A3A3E0FEA3E0FF9002FBE0FBA3E0FAA3A3
:1032FD00E0F9900025EE8FF0124AC69002FBE0FB3C
:10330D00A3E0FAA3E02428F9E43AFAC002C00112BE
:10331D004C6B900302E0F8A3E0F9A3E0FAA3E02FD1
:10332D00FFEA3EFEE93DFDE83CFCD001D002124C27
:0F333D00BB900302E0FCA3E0FDA3E0FEA3E0FFD2
:01334C00225E
:0F87D1002FF9EA3EFAEB3DFBF0A3EAF0A3E9F043
:1087E000900294124D7100000000900294A3A3E047
:1087F000FEA3E0F5828E8312492CFF6045645C6025
:108800001DEF642F6018EF643A6013EF6422600E6E
:10881000EF643C6009EF643E6004EFB47C037F01C9
:1088200022900294E0FCA3E0FDA3E0FEA3E024017B
:10883000FFE43EFEE43DFDE43CFC900294124D65F5
:0488400080A87F008D
:018844002211
:087DDC00E0FBA3E0FAA3E0F9CB
:0B7DE400900294EBF0A3EAF0A3E9F09A
:107DEF00A3124D7100000000128928EF802A900223
:107DFF009BA3A3E0FEA3E0FF900294E0FBA3E0FAB5
:107E0F00A3E0F98F828E8312492CB4202290029B1B
:107E1F00E0FCA3E0FDA3A3E024FFFFEE34FFFEEDA3
:107E2F0034FFFDEC34FFFC90029B124D6580BF9038
:107E3F00029BE0FCA3E0FDA3E0FEA3E0FF9002970E
:107E4F00E0F8A3E0F9A3E0FAA3E0FBD3124C34501F
:107E5F0063900297A3A3E0FEA3E0FF900294E0FBE0
:107E6F00A3E0FAA3E0F98F828E8312492CFF642BD3
:107E7F00601DEF645B6018EF645D6013EF642C604E
:107E8F000EEF64206009EF643B6004EFB43D037FA5
:107E9F000122900297E0FCA3E0FDA3E0FEA3E02403
:107EAF0001FFE43EFEE43DFDE43CFC900297124DE1
:067EBF0065027E3E7F001B
:017EC500229A
:087EC600E0FBA3E0FAA3E0F9E0
:0B7ECE00900294EBF0A3EAF0A3E9F0AF
:107ED900128928EF24FFFFEE34FFFEED34FFFDEC9D
:107EE90034FFFC900297124D6590029B124D710070
:107EF900000000900294E0FBA3E0FAA3E0F9124924
:107F090013B42E037F0122E4FFFEFDFC900297E0EB
:107F1900F8A3E0F9A3E0FAA3E0FBD3124C344062E2
:107F2900900297A3A3E0FEA3E0FF900294E0FBA3D5
:107F3900E0FAA3E0F98F828E8312492CB42E1F90A8
:107F4900029BE0FCA3E0FDA3E0FEA3E02401FFE423
:107F59003EFEE43DFDE43CFC90029B124D6590021F
:107F690097E0FCA3E0FDA3E0FEA3E024FFFFEE34CD
:107F7900FFFEED34FFFDEC34FFFC900297124D65D6
:107F89008085E47F01FEFDFC90029BE0F8A3E0F907
:107F9900A3E0FAA3E0FBD3124C3440037F01227F14
:017FA90000D7
:017FAA0022B4
:085F7D00E0FBA3E0FAA3E0F948
:0B5F8500900294EBF0A3EAF0A3E9F017
:105F9000128928EF24FFFFEE34FFFEED34FFFDEC05
:105FA00034FFFC900297124D6590029B7402F0A39F
:105FB000F0900297A3A3E0FEA3E0FF900294E0FB21
:105FC000A3E0FAA3E0F98F828E8312492C642E702D
:105FD0000302607FE4FFFEFDFC900297E0F8A3E07F
:105FE000F9A3E0FAA3E0FBD3124C34500302607F24
:105FF000900297A3A3E0FEA3E0FF900294E0FBA32E
:10600000E0FAA3E0F98F828E8312492CFFC36480EB
:1060100094E14017D3EF648094FA500F90029BE014
:1060200070037FFF2290029B7401F0900297A3A35C
:10603000E0FEA3E0F5828E8312492CFFC3648094B6
:10604000C14017D3EF648094DA500F90029BE0B404
:1060500001037FFF22E490029BF0900297E0FCA3F3
:10606000E0FDA3E0FEA3E024FFFFEE34FFFEED34ED
:10607000FFFDEC34FFFC900297124D65025FB1E426
:10608000FFFEFDFC900297E0F8A3E0F9A3E0FAA37D
:10609000E0FBC3124C347038900294E0FBA3E0FAAA
:1060A000A3E0F9124913FFC3648094E14017D3EFD2
:1060B000648094FA500F90029BE070037FFF22905F
:1060C000029B7401F090029BE0A3F0E490029BF02D
:1060D000900297A3A3E0FEA3E0FF900294E0FBA34D
:1060E000E0FAA3E0F98F828E8312492CB42E0C9033
:1060F0000297E0FCA3E0FDA302618CE4FFFEFDFC3F
:10610000900297E0F8A3E0F9A3E0FAA3E0FBD31232
:106110004C3450030261A6900297A3A3E0FEA3E0D3
:10612000FF900294E0FBA3E0FAA3E0F98F828E8354
:1061300012492CFFC3648094E14017D3EF6480942C
:10614000FA500F90029CE070037FFF2290029C7433
:1061500001F0900297A3A3E0FEA3E0F5828E8312E4
:10616000492CFFC3648094C14017D3EF648094DA54
:10617000500F90029CE0B401037FFF22E490029C48
:10618000F0900297E0FCA3E0FDA3E0FEA3E024FF73
:10619000FFEE34FFFEED34FFFDEC34FFFC90029780
:1061A000124D650260FB90029CE0B40239900294AB
:1061B000E0FBA3E0FAA3E0F9124913FFC364809463
:1061C000E1400ED3EF648094FA500690029C740173
:1061D000F0C3EF648094C1400DD3EF648094DA5033
:1061E00005E490029CF090029BE0C454F0FFA3E011
:0261F0004FFF5F
:0161F200228A
:0878A600E0FBA3E0FAA3E0F906
:0B78AE00900294EBF0A3EAF0A3E9F0D5
:1078B900E4A3F0A3F0A3F0A3F0A3F0128928804178
:1078C90090029CA3A3E0FEA3E024FFFFEE34FFFE99
:1078D900900294E0FBA3E0FAA3E0F98F828E831271
:1078E900492CB4202490029CE0FCA3E0FDA3E0FE17
:1078F900A3E024FFFFEE34FFFEED34FFFDEC34FF7F
:10790900FC90029C124D6580B7E47F0CFEFDFC9053
:10791900029CE0F8A3E0F9A3E0FAA3E0FBD3124C40
:107929003440037F012290029CA3A3A3E014900298
:1079390099F0900299E0FFD39400402C900294E0D2
:10794900FBA3E0FAA3E0F98F8275830012492CB4F6
:107959002E0E900299E0900297F0A37401F080082E
:10796900900299E014F080CA900298E07024900285
:107979009CA3A3A3E0FF90029AF0E4A3F0EFD394B1
:1079890000400C90029AE0D3940850037F00227FB4
:107999000122900297E0FB90029AF0FA90029CA3D0
:1079A900A3A3E0FFEB04FEC3EF9E90029BF0EAD392
:1079B9009400401290029AE0D394085009A3E094ED
:0879C9000350037F00227F013F
:0179D1002293
:0B6FA100900294EBF0A3EAF0A3E9F0EB
:106FAC00E490029AF0A37407F0A3740AF090029490
:106FBC00E0FBA3E0FAA3E0F990029BE0F582758375
:106FCC000012492CB4200890029BE014F080DE9053
:106FDC00029BE004F0900294E0FBA3E0FAA3E0F93A
:106FEC0090029CE0FFF58275830012492CB4200EB0
:106FFC00EFC39408400890029CE014F080D79002F4
:10700C009CE024F9F0E490029AF090029BE0FF904F
:10701C00029AE0FEC39F5030900294E0FBA3E0FA8A
:10702C00A3E0F98E8275830012492CFF900297E041
:10703C00FBA3E0FAA3E0F98E82758300EF12499E60
:10704C0090029AE004F080C2900297E0FBA3E0FA71
:10705C00A3E0F98E82758300742E12499EE490028F
:10706C009AF090029CE0FF90029AE0C39F5047E098
:10707C00FF2408FDE433FC900294E0FBA3E0FAA3A8
:10708C00E0F98D828C8312492CFEEFFD90029BE07F
:10709C002DFDE433CD2401CD3400FC900297E0FBB0
:1070AC00A3E0FAA3E0F98D828C83EE12499E900244
:1070BC009AE004F080AC90029CE0FF90029BE02FE1
:1070CC00FFE433FE900297E0FBA3E0FAA3E0F98F14
:1070DC00828E8312492CB42E068F828E8380179059
:1070EC00029CE0FF90029BE02FFFE433CF2401CF02
:0C70FC0034008F82F583E412499E7F006F
:017108002264
:084E7800E0FBA3E0FAA3E0F95E
:0B4E8000900255EBF0A3EAF0A3E9F06C
:104E8B0090025B124D710000000090025F124D7199
:104E9B0000000000900004EBF0A3EAF0A3E9F0900F
:104EAB000255E0F9A3E0FAA3E0900297C9F0A3EA58
:104EBB00F0A3E9F0900258E0FBA3E0FAA3E0F912AB
:104ECB006FA112891DEF024F9690025BA3A3E0FE28
:104EDB00A3E0FF900255E0FBA3E0FAA3E0F98F8279
:104EEB008E8312492C642E7003024FAEE4FFFEFD3D
:104EFB00FC90025BE0F8A3E0F9A3E0FAA3E0FBD39C
:104F0B00124C345003024FAE900258E0FBA3E0FA70
:104F1B00A3E0F990000C12492C30E46290025BA3E1
:104F2B00A3E0FEA3E0FF900255E0FBA3E0FAA3E0B1
:104F3B00F98F828E8312492CFFC3648094C1400D7C
:104F4B00D3EF648094DA5005EF2420801090025B3D
:104F5B00A3A3E0FEA3E0F5828E8312492CFFC007CA
:104F6B0090025BA3A3E0FEA3E0FF900255E0FBA33E
:104F7B00E0FAA3E0F98F828E83D0E012499E900273
:104F8B005BE0FCA3E0FDA3E0FEA3E024FFFFEE3417
:104F9B00FFFEED34FFFDEC34FFFC90025B124D6520
:104FAB00024ED4900258E0FBA3E0FAA3E0F9900084
:104FBB000C12492C20E30302507690025F124D71C4
:104FCB000000000090025BE0FCA3E0FDA3E0FEA369
:104FDB00E0FFA3E0F8A3E0F9A3E0FAA3E0FBC31220
:104FEB004C34400302507690025FA3A3E0FEA3E093
:104FFB00FF900255E0FBA3E0FAA3E0F98F828E83CA
:10500B0012492CFFC3648094C1400DD3EF6480948C
:10501B00DA5005EF2420801090025FA3A3E0FEA3DB
:10502B00E0F5828E8312492CFFC00790025FA3A389
:10503B00E0FEA3E0FF900255E0FBA3E0FAA3E0F94A
:10504B008F828E83D0E012499E90025FE0FCA3E03A
:10505B00FDA3E0FEA3E02401FFE43EFEE43DFDE4FE
:10506B003CFC90025F124D65024FCF12891DEF245D
:10507B00FFFFEE34FFFEED34FFFDEC34FFFC90023E
:10508B005B124D65900258E0FBA3E0FAA3E0F990A8
:10509B00000B12492C30E42290025BA3A3E0FEA389
:1050AB00E02401FFE43EFE900255E0FBA3E0FAA3EF
:1050BB00E0F98F828E83E412499E900258E0FBA3A5
:1050CB00E0FAA3E0F990000B12492CFF900255E097
:1050DB00FBA3E0FAA3E0F990000DEF12499E9002BA
:1050EB0058E0FBA3E0FAA3E02414126E41E4FBFAB0
:1050FB007901F8124AF3C004C005C006C00790023C
:10510B0058E0FBA3E0FAA3E0241A126E41D003D0BF
:10511B0002D001D000EF2BFFEE3AFEED39FDEC385B
:10512B00FC900255E0FBA3E0FAA3E0F99000151206
:10513B004CD5900258E0FBA3E0FAA3E0241CF9E461
:10514B003AFA7D04126E47900255E0FBA3E0FAA3F6
:10515B00E0F9900019124CD5900258126E3890025B
:10516B005B124D6590025BA3A3A3E0541FFFE4FE0B
:10517B00FDFC7B02FAF9F8124AF3900255E0FBA30F
:10518B00E0FAA3E0F9900010EF12499E90025BE069
:10519B00FCA3E0FDA3E0FEA3E0FF7805124C4590D5
:1051AB00025B124D6590025BA3A3A3E0542FFF900B
:1051BB00000FEF12499E90025BE0FCA3E0FDA3E021
:1051CB00FEA3E0FF7806124C4590025B124D6590F2
:1051DB00025BA3A3A3E0541FFF90000EEF12499EA6
:1051EB00900258E0FBA3E0FAA3E0F990000D1249FE
:1051FB002CFF7E007C007D641249C0900255E0FBC1
:10520B00A3E0FAA3E0F9900010EF1249599002586D
:10521B00E0FBA3E0FAA3E02410126E4190025B12B4
:10522B004D6590025BA3A3A3E0541FFF900255E0D2
:10523B00FBA3E0FAA3E0F9900014EF12499E900251
:10524B005BE0FCA3E0FDA3E0FEA3E0FF7805124CBE
:10525B004590025B124D6590025BA3A3A3E0540F34
:10526B00FF900013EF12499E90025BE0FCA3E0FD60
:10527B00A3E0FEA3E0FF7804124C4590025B124DB5
:10528B006590025BE0FCA3E0FDA3E0FEA3E0547F8E
:10529B00FFEF24BCFFE434079000118FF0124AC6D5
:1052AB00900015124C8B90001D124CD590001D12C6
:1052BB004C8BEC4D4E4F6054900255E0FBA3E0FA43
:1052CB00A3E0F990001D124C8BEF24FEFFEE34FF90
:1052DB00FEED34FFFDEC34FFFC900207E0FBA3E096
:1052EB00FAA3E0F9900010124D35124AF390020721
:1052FB00E0FBA3E0FAA3E0F9900018124D35EF2B79
:10530B00FFEE3AFEED39FDEC38FC8005E4FFFEFDC7
:10531B00FC900255E0FBA3E0FAA3E0F99000211208
:10532B004CD5900025E4F5F0124AC6900028124D9A
:10533B00BC00000000900015124C8BEC4D4E4F60E2
:10534B00047F0080027F01900255E0FBA3E0FAA3EB
:0B535B00E0F9900027EF12499E7F0050
:015366002224
:088AC900E0FBA3E0FAA3E0F9D1
:0B8AD100900255EBF0A3EAF0A3E9F0DF
:108ADC00E4FF900255E0FBA3E0FAA3E0F98F827566
:108AEC00830012492CFE600E642A6004EEB43F032E
:088AFC007F01220F80DC7F00E6
:018B0400224E
:107FAB009002B6F0A37402F0A3749EF090029AE0D4
:0F7FBB009002B9F0900297E0FBA3E0FAA3E0F97F
:0B7FCA009002B3EBF0A3EAF0A3E9F093
:107FD5009002B9E0A3F0E4A3F01289289002BCEF67
:107FE500F09002B6128920AC079002BCE0FE900228
:107FF500BAE0FDC39E5065A3E0FEC39C505E9002AF
:10800500B6E0FBA3E0FAA3E0F98E8275830012497E
:108015002CFE9002B3E0FBA3E0FAA3E0F98D827594
:10802500830012492C6E601B9002B6E0FBA3E0FAB8
:10803500A3E0F99002BBE0FEF58275830012492C9E
:10804500B43F0C9002BAE004F0A3E004F0809A90EB
:1080550002BAE0C39E04F0E4A3F0808D9002BBE079
:0D806500B504089002BAE0C39CFF227FFF23
:0180720022EB
:0868F500E0FBA3E0FAA3E0F9C7
:0B68FD00900294EBF0A3EAF0A3E9F096
:10690800E490029AF0A3F090029712892090029CDA
:10691800EFF090029412892090029DEFF0E490022B
:10692800B2F090029DE0FF90029BE0FEC39F50559D
:10693800900294E0FBA3E0FAA3E0F98E827583004D
:1069480012492CFD642A603DC3ED648094E1400F38
:10695800D3ED648094FA5007ED24E0FDFE80098EA3
:106968008275830012492CFE9002B2E0249EF582C3
:10697800E43402F583EEF09002B2E004F090029B5A
:10698800E004F0809D900294E0FBA3E0FAA3E0F914
:1069980090029BE0F58275830012492C700A9002E0
:1069A8009CE06F60037F01229002B2E0249EF58292
:1069B800E43402F583E4F09002B604F0A37402F024
:1069C800A3749EF0E4A3127FBEEF60037F012290C0
:1069D80002B2E090029AF090029DE0FF90029BE0E4
:1069E800FEC39F501E900294E0FBA3E0FAA3E0F9D7
:1069F8008E8275830012492CB42A0890029BE00409
:106A0800F080D4EEB507037F0022E49002B2F09044
:106A1800029DE0FF90029BE0FEC39F5055900294B8
:106A2800E0FBA3E0FAA3E0F98E8275830012492CFB
:106A3800FD642A603DC3ED648094E1400FD3ED64AA
:106A48008094FA5007ED24E0FDFE80098E8275835C
:106A58000012492CFE9002B2E0249EF582E4340232
:106A6800F583EEF09002B2E004F090029BE004F0AF
:106A7800809D9002B2E0249EF582E43402F583E41E
:106A8800F090029BE06F701804127FAB9002B2E0A6
:106A9800FE90029CE0C39E6F60037F01227F00226C
:106AA8007401127FAB90029AEFF0BFFF037F0122BF
:0E6AB8009002B2E0FF90029AE02FF00269DF38
:0B5367009002C1EBF0A3EAF0A3E9F014
:10537200E4FF9002CCF0A3124D71000000009002F5
:10538200D1124D71000000009002D5124D71000043
:1053920000009002D9124D71000000009002DD124F
:1053A2004D71000000009002E1124D7100000000FA
:1053B200900004EBF0A3EAF0A3E9F0900258740124
:1053C200F0A37402F0A374D1F0A37401F0A37402E9
:1053D200F0A374D5F09002C4127266EF60012290BD
:1053E20002D5A3E0FDA3E0FEA3E0FF9002C4E0FB30
:1053F200A3E0FAA3E09002F21287D1EF60037F08E4
:10540200229002F2128AC9EF70309002F21278A64C
:10541200EF60037F09229002F2127EC6EF60037FE3
:105422000A229002F2127DDCEF60037F0B229002CF
:10543200F2125F7DBFFF037F0C22900207E0FBA305
:10544200E0FAA3E0F9900010124D359002D1E0FC91
:10545200A3E0FDA3E0FEA3E024FEFFEE34FFFEED99
:1054620034FFFDEC34FFFC124AF3900207E0FBA389
:10547200E0FAA3E0F9900018124D35EF2BFFEE3A57
:10548200FEED39FDEC38FC9002CD124D659002DD47
:10549200124D7100000000900207E0FBA3E0FAA3A6
:1054A200E0F9900010124C8B9002DDE0F8A3E0F9D5
:1054B200A3E0FAA3E0FBC3124C3440030256F99076
:1054C20002DDE0FCA3E0FDA3E0FEA3E0FF9002CD3D
:1054D200E0F8A3E0F9A3E0FAA3E02FFFEA3EFEE939
:1054E2003DFDE83CFC900000E0FBA3E0FAA3E0F9FC
:1054F200128073900000E0F9A3E0FAA3E09002F5B5
:10550200C9F0A3EAF0A3E9F09002E1124D710000A4
:105512000000E47F10FEFDFC9002E1E0F8A3E0F958
:10552200A3E0FAA3E0FBC3124C3440030256D7E4D3
:105532007F20FEFDFC9002E1E0F8A3A3A3E0124A63
:10554200F39002F5E0FBA3E0FAA3E02FF9EA3EFABA
:10555200EB3DA3F0A3EAF0A3E9F09002CBE06033C5
:105562009002F8E0FBA3E0FAA3E0F990000B1249E5
:105572002CFF30E403D38001C34012EF640F600DAF
:10558200EF600A640860067E007F0180227E007F51
:1055920000801C9002F8E0FBA3E0FAA3E0F990007F
:1055A2000B12492C7E0030E4047F0180027F00EF61
:1055B2004E70030256B59002F8E0FBA3E0FAA3E0B6
:1055C200F9124913FF64E570030256B5EF642E70B9
:1055D200030256B59002977401F0A37402F0A3740B
:1055E200E5F0126FA19002977401F0A37402F0A388
:1055F20074E5F09002F21268F5EF600302568B90A8
:1056020002D9E0FCA3E0FDA3E0FEA3E0FF9002C705
:10561200E0F8A3E0F9A3E0FAA3E0FBC3124C347074
:10562200629002F8E0F9A3E0FAA3E0900258C9F010
:10563200A3EAF0A3E9F09002C1124E789002DDE0F5
:10564200FCA3E0FDA3E0FEA3E0FF9002CDE0F8A3FF
:10565200E0F9A3E0FAA3E02FFFEA3EFEE93DFDE810
:105662003CFC9002C1E0FBA3E0FAA3E0F990002C1D
:10567200124CD59002E1A3A3A3E090003012499E00
:105682007F00229002CC7401F09002CCE060249062
:1056920002D9E0FCA3E0FDA3E0FEA3E02401FFE4C5
:1056A2003EFEE43DFDE43CFC9002D9124D65E490DF
:1056B20002CCF09002E1E0FCA3E0FDA3E0FEA3E057
:1056C2002401FFE43EFEE43DFDE43CFC9002E112D5
